:020000040000FA
:1000000000750020A5030000AD0300005D5900004D
:10001000B1030000B3030000B503000000000000BE
:10002000000000000000000000000000B703000016
:10003000B903000000000000BB030000BD03000086
:10004000BF030000C1030000C3030000C50300009C
:10005000C7030000C9030000CB030000CD0300006C
:10006000CF030000D1030000D3030000D50300003C
:10007000D7030000D9030000DB030000DD0300000C
:10008000DF030000E1030000E3030000E5030000DC
:10009000E7030000E9030000EB030000ED030000AC
:1000A000EF030000F1030000F3030000F50300007C
:1000B000F7030000F9030000FB030000FD0300004C
:1000C000FF03000001040000030400000504000019
:1000D00007040000090400000B0400000D040000E8
:1000E0000F040000110400000000000013040000D1
:1000F0001504000017040000190400001B04000090
:100100001D0400001F04000021040000230400005F
:10011000000000000000000025040000270400008B
:10012000290400002B0400002D0400002F0400000F
:1001300031040000330400003504000037040000DF
:1001400000000000000000000000000000000000AF
:10015000390400003B0400003D0400003F0400009F
:10016000000000000000000000000000000000008F
:10017000000000000000000000000000000000007F
:10018000000000000000000000000000000000006F
:10019000000000000000000000000000000000005F
:1001A000000000000000000000000000000000004F
:1001B000410400004304000045040000470400001F
:1001C000490400004B0400004D0400004F040000EF
:1001D00051040000530400005504000057040000BF
:1001E000590400005B0400005D04000000000000F2
:1001F000000000005F0400006104000063040000D0
:10020000650400006704000000000000000000001A
:10021000690400006B0400006D0400006F0400001E
:1002200071040000730400007504000077040000EE
:10023000790400007B0400007D0400007F040000BE
:10024000810400008304000085040000870400008E
:10025000890400008B0400008D0400008F0400005E
:1002600091040000930400009504000000F002F8DF
:1002700000F070F80AA090E8000C82448344AAF1D0
:100280000107DA4501D100F065F8AFF2090EBAE8CE
:100290000F0013F0010F18BFFB1A43F001031847BA
:1002A000CCFA0200ECFA02000A444FF0000C10F8FD
:1002B000013B13F0070408BF10F8014B1D1108BFE4
:1002C00010F8015B641E05D010F8016B641E01F884
:1002D000016BF9D113F0080F1EBF10F8014BAD1CD4
:1002E0000C1B09D16D1E58BF01F801CBFAD505E0F2
:1002F00014F8016B01F8016B6D1EF9D59142D6D34C
:10030000704700000023002400250026103A28BF73
:1003100078C1FBD8520728BF30C148BF0B60704777
:1003200066292BF09180642900F05C8100207047E1
:100330001FB52BF03AF89DE8030000F063FB00F0D6
:100340002BFE0400002000212AF028F9E0601FBDE8
:1003500010B510BD00F041FF1146FFF7E9FF1EF098
:1003600011FD00F05FFF03B4FFF7F2FF03BC17F0CD
:1003700069FA00000138FDD170470000EFF31080EA
:1003800072B67047EFF310807047EFF3108062B6DB
:10039000704730BF704780F311887047EFF31180CA
:1003A000704700003F4880473F480047FEE7FEE7B0
:1003B000FEE7FEE7FEE7FEE7FEE7FEE7FEE7FEE715
:1003C000FEE7FEE7FEE7FEE7FEE7FEE7FEE7FEE705
:1003D000FEE7FEE7FEE7FEE7FEE7FEE7FEE7FEE7F5
:1003E000FEE7FEE7FEE7FEE7FEE7FEE7FEE7FEE7E5
:1003F000FEE7FEE7FEE7FEE7FEE7FEE7FEE7FEE7D5
:10040000FEE7FEE7FEE7FEE7FEE7FEE7FEE7FEE7C4
:10041000FEE7FEE7FEE7FEE7FEE7FEE7FEE7FEE7B4
:10042000FEE7FEE7FEE7FEE7FEE7FEE7FEE7FEE7A4
:10043000FEE7FEE7FEE7FEE7FEE7FEE7FEE7FEE794
:10044000FEE7FEE7FEE7FEE7FEE7FEE7FEE7FEE784
:10045000FEE7FEE7FEE7FEE7FEE7FEE7FEE7FEE774
:10046000FEE7FEE7FEE7FEE7FEE7FEE7FEE7FEE764
:10047000FEE7FEE7FEE7FEE7FEE7FEE7FEE7FEE754
:10048000FEE7FEE7FEE7FEE7FEE7FEE7FEE7FEE744
:10049000FEE7FEE7FEE7000004480549054A064B73
:1004A00070470000B96A01006D020000006800207A
:1004B00000750020006B0020006B0020704770B5B5
:1004C000064600F083FA056806F10B0020F00704E9
:1004D000B4429CBF002070BD2B466A68BAB1106858
:1004E000A04210D304F1080188423CBF5068586014
:1004F00007D35168101941601168091B01605860E9
:100500001460101D70BD13465268002AE7D12146C1
:10051000284600F063FA0028DED170BD70B50446AD
:10052000051F00F053FA0068002C14BF446870BD2A
:10053000002C18BFAC423CBF20466468F8D3016869
:100540000A18AA4218BF456003D12A68054611441B
:10055000016028684119A1421CBF6C6070BD6168D0
:10056000696021680844286070BD00000FB41CB5A4
:10057000074B06AA7B4469460090059800F0EFFC03
:100580000020694600F0FEFC1CBC5DF814FB000076
:100590000D0A000070B5044685690068C10601D5E2
:1005A000302600E02026C00707D070BDD4E9012125
:1005B00030469047206A401C20626D1EF6D570BD03
:1005C00070B5044685690078C00707D170BDD4E9CD
:1005D000012120209047206A401C20626D1EF6D524
:1005E00070BD00002DE9F041064600241068752911
:1005F000314616A510D0AFF30080002802DA404241
:1006000013A507E031688A0701D512A502E0490762
:1006100004D511A5012401E0AFF3008000210A22D6
:1006200006F1240709E0B0FBF2FCB0FBF2F302FB99
:100630001C00303078541846491C0028F3D123465A
:100640002A463046BDE8F04100F01DBA0000000027
:100650002D0000002B000000200000002DE9F047D5
:100660004FF0000A89460446C0F820A02046E16801
:100670008847002876D0252806D0D4E90121904764
:10068000206A401C2062F1E7E16820460025884787
:10069000C4F81CA006460027C4F818A02A2E09D0CA
:1006A000304629F007FB38B304EB8708303EC8F822
:1006B000186019E059F8041B204604EB8702916189
:1006C000E1688847012F064618D1E069002820DA42
:1006D00025F020051DE0D8F8180000EB800006EB9F
:1006E00040003038C8F818002046E16888470646C0
:1006F00029F0E0FA0028EED1012F0AD02E2E08D1E1
:100700002046E16888477F1C0646022F45F02005F9
:10071000C4DBA069002803DA404245F00105A0616E
:10072000E80701D025F01005B6B1A6F1410019285F
:1007300002D8203645F400654A46314620462560F9
:100740004D46FFF7EDFD58B1012806D0ED1D25F00F
:10075000070000F1080989E704E005F1040985E7CD
:1007600030468AE7206ABDE8F08740EA010310B509
:100770009B070FD1042A0DD310C808C9121F9C4231
:10078000F8D020BA19BA884201D9012010BD4FF023
:10079000FF3010BD1AB1D30703D0521C07E0002070
:1007A00010BD10F8013B11F8014B1B1B07D110F8CD
:1007B000013B11F8014B1B1B01D1921EF1D11846D0
:1007C00010BD032A40F2308010F0030C00F01580B9
:1007D00011F8013BBCF1020F624498BF11F801CB44
:1007E00000F8013B38BF11F8013BA2F1040298BFA9
:1007F00000F801CB38BF00F8013B11F0030300F013
:100800002580083AC0F0088051F8043B083A51F8B6
:1008100004CBA0E80810F5E7121D5CBF51F8043BBB
:1008200040F8043BAFF30080D20724BF11F8013B2E
:1008300011F801CB48BF11F8012B24BF00F8013B90
:1008400000F801CB48BF00F8012B704710B5203AE3
:10085000C0F00B80B1E81850A0E81850B1E818506B
:10086000A0E81850203ABFF4F5AF5FEA027C24BF3D
:10087000B1E81850A0E8185044BF18C918C0BDE826
:1008800010405FEA827C24BF51F8043B40F8043BEF
:1008900008BF7047D20728BF31F8023B48BF11F8A4
:1008A000012B28BF20F8023B48BF00F8012B7047FE
:1008B0004FF000020429C0F0128010F0030C00F089
:1008C0001B80CCF1040CBCF1020F18BF00F8012B07
:1008D000A8BF20F8022BA1EB0C0100F00DB85FEAD5
:1008E000C17C24BF00F8012B00F8012B48BF00F8A1
:1008F000012B70474FF0000200B513469446964610
:10090000203922BFA0E80C50A0E80C50B1F1200122
:10091000BFF4F7AF090728BFA0E80C5048BF0CC0D0
:100920005DF804EB890028BF40F8042B08BF70472E
:1009300048BF20F8022B11F0804F18BF00F8012BA0
:10094000704700000000000030B44FF0013C50F848
:10095000042B51F8043BCCFA52F4D51A20D1FCB93F
:1009600050F8042B51F8043BCCFA52F4D51A17D1A5
:10097000B4B950F8042B51F8043BCCFA52F4D51A10
:100980000ED16CB950F8042B51F8043BCCFA52F458
:10099000D51A05D1002CDAD030BC4FF000007047DA
:1009A00029BAB1FA81F111F01801D1F12000844087
:1009B000F2D1CA40CB4012F0FF0213F0FF0330BC6B
:1009C000D01A7047704770477047704700487047AB
:1009D000D8090020704770477047704738B5044603
:1009E0000A4600206946AFF30080002808BF38BDE2
:1009F00002460099204600F0D7FA012038BD0120B8
:100A000000F0E4BBF8B5AFF30080054600200C46CB
:100A1000102000BF0646A819A0420DD932466946EB
:100A20000020AFF30080070008BF00F0CFFB009864
:100A3000A04218BF0546C419FFF7C8FF0560074666
:100A4000F01D20F007004619284600F00AF8B442CD
:100A500008BFF8BDA21B31463868BDE8F84000F079
:100A6000A3BA00210160C0E901107047102070474F
:100A700010B500F095FA006810BD10B5044600F0FE
:100A80008FFA046010BD2DE9F0470D469946924655
:100A9000044600F124080168880604D5E06921F0C5
:100AA0001001216000E00120A84201DD471B00E0A9
:100AB0000027A1697A1902EB0900081AA0612078C1
:100AC000C00602D42046FFF765FD002608E0D4E901
:100AD00001211AF806009047206A401C761C20620B
:100AE0004E45F4DB2078C0060AD52046FFF752FDBC
:100AF00006E0D4E9012130209047206A401C2062A2
:100B0000381EA7F10107F4DC07E0D4E9012118F849
:100B100005009047206A401C2062281EA5F10105AF
:100B2000F3DC2046FFF74CFD2078000602D50220BA
:100B3000BDE8F0870120FBE72DE9FF4F0C461E467C
:100B40004FF0FF378BB0D2E90001DDF860800A90EA
:100B50008A46C1F30A5505B93D46002108464FF0C3
:100B60000000BAF1000F00F4400005DA00EB80004D
:100B70004FF4400101EA50004FEA9059B9F1010FDA
:100B800000DDB9460A9850EA4A000ED044F61050EB
:100B9000A5F2FF3545432F14B8F1000F1ED0754262
:100BA000291E1EDDC9F100021CE0B8F1010F4FF053
:100BB000000001D0302103E0F24305E02154401C45
:100BC000B042FBDB30460022002121540B99C1F8D2
:100BD0000880C1E900200FB0BDE8F08FBD1B6D1C7F
:100BE000DEE74A4600DA694206A800F07DFA06AB65
:100BF00093E8070003AB83E8070050460A9922F008
:100C000085F88DE80700A0F500501F380090039884
:100C1000002D0ADD42F21F014A460844002303A9C1
:100C20000390684622F0EEFA09E0A0F500504A462B
:100C30001F38002303A90390684622F0F8FA8DE8D4
:100C400007000004000C03D04FF0FF30410800E023
:100C50001046B8F1000F03D00022009215461EE0A6
:100C6000751E05D400F0BAF9303262556D1EF9D503
:100C7000B3460122084302D000227F1C04E0207802
:100C8000302801D100227F1E002A099784D01DE060
:100C9000112D07DA00F0A2F9303262556D1C50EACE
:100CA0000102F5D1084302D00098C8B10EE000213E
:100CB000681E05E0235C625C63542254401E491C9C
:100CC0008142F7DBAB46A81B401E0990002004F8C8
:100CD0000B000B98099AC0F80880C0E9002B7AE74E
:100CE00011264FF0000857E72DE9F04F88460446DB
:100CF000D21D22F0070191B0D1E90001CDE90A012E
:100D000025F0E8FE02460B98C00F01D02D2007E029
:100D10002068810701D52B2002E0202101EAC000D4
:100D2000032A099001D0072A05DB034641462046E5
:100D300000F09AF90BE12078800601D5E06900E027
:100D40000620B8F1650F814606D0B8F1660F18D0BD
:100D5000B8F1670F70D131E00020B9F1110F0090A8
:100D600001DB112301E009F101030AAA01A90CA882
:100D7000FFF7E2FEDDE90C70002609F1010583466C
:100D800047E001204B4600904FF000470AAA01A916
:100D90000CA8FFF7D1FEDDE90DB00C995D460026E9
:100DA00010B909F101000D18B9EB050003D4C0F129
:100DB000FF3609F10105A5EB09002BE0B9F1010FA0
:100DC00001DA4FF001090020B9F1110F00904846F7
:100DD00001DD112300E003460AAA01A90CA8FFF7D0
:100DE000ABFEDDE90C704D460026834620780007F7
:100DF0000AD4AB4500DA5D4601A8012D04DD411996
:100E000011F8011C302907D04F4502DA17F1040F01
:100E100004DA012082460FE06D1EEEE7002F02DCAF
:100E2000ED1B3E4403E0781CA84200DD7D1CB81B8E
:100E300000F1010A4FF000472078000703D4AA45CB
:100E400001DB4FF0FF3A0021B7F1004F0DF14308ED
:100E50008DF8431024D002202B23002F01DA7F428B
:100E60002D230A21021EA0F1010000DC5FB197FBD7
:100E7000F1FC97FBF1F201FB1C7C17460CF1300CE6
:100E800008F801CDEEE7A8F10100037021880905FB
:100E900001D5452100E06521A0F1010800F8011C01
:100EA00009980FA9A1EB0807FF1D00B10120411906
:100EB00001EBEA70A1693844081A401EA06120784D
:100EC000C00602D42046FFF765FB099828B1D4E993
:100ED00001219047206A401C20622078C00622D55C
:100EE0002046FFF757FB1EE0002E04DBB34502DD72
:100EF00001A8805D00E03020D4E901219047206AFC
:100F0000401C2062761CAAF101005FEA000A0AD1A7
:100F100000F042F8C0680168405CD4E901219047C4
:100F2000206A401C2062281EA5F10105DCDC07E0D8
:100F3000D4E9012118F8010B9047206A401C206277
:100F4000381EA7F10107F3DC2046FFF739FB032029
:100F500011B041E601694A1C02610878704700B58A
:100F60008FB0CDE901310021059105497944CDE9E2
:100F7000031011466846FFF771FB0FB000BD00007B
:100F8000E5FFFFFF0A6802F8010B0A6070470000E6
:100F900000487047D009002000487047F009002041
:100FA00000487047D0090020034640688C4600285E
:100FB00018BF88423CBF03464068F8D318681844FD
:100FC000884207D00CF1030020F00700001D411AF1
:100FD000521A0146081D0A60FFF7A0BA30B5B0F1F9
:100FE0000A0271F100034FEA900E4EEA817EB0EBE7
:100FF0000E0061EB91014FEA101E4EEA017E10EBEC
:101000000E0041EB11114FEA102E4EEA016E10EB6B
:101010000E0041EB11214FEA104E4EEA014E10EB4B
:101020000E0041EB1141401841F100014FEAD000A0
:1010300040EA41704FEAD1014FEA810444EA9074DA
:1010400010EB800544EB01046D1944EB0404521BC2
:10105000A3414FF0000348BF0A3200D530BD401C09
:1010600041F1000130BD00002DE9F0411F4604466A
:1010700003260168072A01F4006004DB08B116A505
:1010800005E016A503E008B115A500E015A521F0BF
:1010900010002060A069C01EA0610FB1401EA061B9
:1010A0002046FFF777FA4FB1D4E90121384690473F
:1010B000206A401C2062C01C206206E0206AFAE719
:1010C000D4E9012115F8010B9047761EF8D220468D
:1010D000FFF776FABDE8F0814E414E006E616E007A
:1010E000494E4600696E66002DE9F0478146164676
:1010F0008AB0354878440DC88DE80D0032487844F0
:10110000801C03AC0DC884E80D0041F69B300844F8
:10111000372190FBF1F290FBF1F5A5F1800501FB81
:1011200012041B3C02D56442012000E00020DFF8DD
:1011300098A080460027FA44AAF1BE0A0EE0E00714
:101140000AD03246684607EB470101230AEB8101CA
:1011500022F06DF88DE8070064107F1C002CEED1A2
:10116000194F7F44AE3F19E0E80715D007EB041094
:101170000DF1180A90E80E008AE80E00C068F042EF
:1011800001D1981908903246012306A903A822F03C
:101190004EF803AB83E807006D10641C002DE3D10B
:1011A0004FF0010332466946B8F1000F03A802D0A0
:1011B00022F028F801E022F03AF8C9E90001C9F864
:1011C00008200AB0BDE8F08784B1020010B500F035
:1011D00037F8BDE8104000F02EB87546FFF7D8FE8E
:1011E000AE4605006946534620F00700854618B014
:1011F00020B5FFF751F9BDE820404FF000064FF051
:1012000000074FF000084FF0000BAC46ACE8C009F7
:10121000ACE8C009ACE8C009ACE8C00921F007019E
:101220008D46704710B50446AFF300802046BDE8F8
:101230001040FFF798B8002801D016F003BB7047A4
:1012400010B5012805D0002103A000F021F80120ED
:1012500010BD09A1F8E7000053494752544D454DD0
:101260003A204F7574206F662068656170206D6547
:101270006D6F7279000000003A2048656170206D42
:10128000656D6F727920636F72727570746564003A
:1012900070B505460C460A2000E06D1C16F0D4FA25
:1012A00035B128780028F8D102E0641C16F0CCFA99
:1012B00014B120780028F8D1BDE870400A2016F05B
:1012C000C3BA0000B0B52DED068B48F2AC04C4F2F1
:1012D00003042068C0053BD42068C0051AD400BFB1
:1012E00054F8040C2168C9055EBF54F8040C216849
:1012F0005FEAC15109D454F8040C2168C90504D42B
:1013000054F8040C2168C905EAD500EE100AB8EEBD
:10131000408A01E09FED138A41F638559FED129AFD
:101320009FED12AAC2F2000501F022FE88EE092A02
:1013300095ED001A9FED0E3A22EE0A2A22EE000ADF
:1013400030EE410A20EE030A31EE000A85ED000A74
:10135000A4F1AC000321BDEC068BBDE8B04022F047
:10136000A6B800BF0000000000F07F4533335340B3
:101370000AD7A33C40F600510020C2F200010A78CF
:10138000012A18BF70470870487801281CBF012047
:10139000704700204870012070470000B0B540F64B
:1013A0000055C2F20005287878B91AF059F80128DA
:1013B0000BD140F2940001240A21C2F200002C70EB
:1013C000017000F019F82046B0BD00242046B0BDE1
:1013D00040F6B4410020C2F200014A78012A18BF49
:1013E000704780B54870FFF7C5FF14F035F801204D
:1013F000BDE8804070470000F0B581B02DED068B50
:1014000040F6B445C2F20005687828B100242046B1
:10141000BDEC068B01B0F0BD1AF030F800240128B5
:1014200040F0E580012068701AF006F814F07CFAAC
:101430000020012185ED060AAC7001F063FE00205A
:101440000221B0EE408A01F05DFE00200321B0EEE3
:10145000409A01F057FE00200421B0EE40AA01F0AE
:1014600051FE42F6A4754DF2A54601200121C2F2BB
:101470000005C5F2683685ED058A85ED069A85ED8D
:1014800007AA85ED080AC5E90966C5E90B66C5E93D
:101490000D66C5E90144C5E9034401F033FE0120AE
:1014A0000221B0EE408A01F02DFE01200321B0EEB2
:1014B000409A01F027FE01200421B0EE40AA01F07D
:1014C00021FE0220012185ED148A85ED159A85ED16
:1014D00016AA85ED170AC5E91866C5E91A66C5E9B1
:1014E0001C66C5E91044C5E9124401F00BFE022058
:1014F0000221B0EE408A01F005FE02200321B0EE89
:10150000409A01F0FFFD02200421B0EE40AA01F054
:10151000F9FD002085ED238A85ED249A85ED25AA25
:1015200085ED260AC5E92766C5E92966C5E92B6662
:10153000C5E91F44C5E9214401F0C4FD41F67C150D
:10154000B7EE009A0020B0EE408AC2F2000589EEA4
:1015500000AA01F0EFFD002643F233370120C4F268
:101560002016C3F63377C5E90076AC63C5E90444B9
:10157000AC6185ED0F0A85ED028A85ED03AAC5E908
:101580000844C5E90A4401F09DFD0120B0EE408AFF
:1015900089EE009A01F0CEFD0220C5E91176EC67D4
:1015A000C5E91544EC6585ED200A85ED138A85EDC6
:1015B000149AC5E91944C5E91B4401F0BBFD00209C
:1015C0004DF20A71C5F8C04085ED310AC5E92276B1
:1015D000C4F24830C3F6A331C5E92410C5E9264456
:1015E000C5F8A040C5E92A44C5E92C440124204699
:1015F000BDEC068B01B0F0BD40F6B440C2F2000075
:1016000090ED080A7047000040F6B440C2F20000B6
:1016100090ED070A7047000080B52DED068BB0EE07
:10162000409A20EEA00AB0EE608A29EE091A31EE47
:1016300000AAB0EE4A0A27F04CFDB4EEC00AF1EE63
:1016400010FA03D7B0EE4A0A27F043FD9FED0E1AB9
:1016500040F6B440C2F20000B4EEC10AF1EE10FA56
:10166000C2BF81EE000A20EE088A20EE099A417876
:10167000012911BF002080ED079A80ED088A012022
:10168000BDEC068B80BD00BFCDCC4C3F40F6B441D5
:10169000C2F200014878012811BF002001208870A3
:1016A00081ED090A7047000040F6B440C2F2000024
:1016B0004178012912BF002080ED050A0120704702
:1016C00040F6B440C2F20000417801291CBF00205E
:1016D0007047817801291CBF012070470221817069
:1016E000012070472DE9F04F81B02DED108B92B0A5
:1016F000002004F027F9417881B1817871B190F828
:10170000221008290AD8012202FA01F111F4B47F4B
:1017100004D090F82300002800F09A80012004F003
:1017200011F9417881B1817871B190F822100829BE
:101730000AD8012202FA01F111F4B47F04D090F822
:101740002300002800F08680022004F0FBF8417896
:1017500079B1817869B190F82210082909D801225D
:1017600002FA01F111F4B47F03D090F823000028AD
:1017700072D0032004F0E6F8417879B1817869B13C
:1017800090F82210082909D8012202FA01F111F477
:10179000B47F03D090F8230000285FD0042004F029
:1017A000D1F8417879B1817869B190F8221008298F
:1017B00009D8012202FA01F111F4B47F03D090F8A4
:1017C000230000284CD0052004F0BCF8417871B10A
:1017D000817861B190F82210082908D8012202FA14
:1017E00001F111F4B47F02D090F82300D0B30620A9
:1017F00004F0A8F8417871B1817861B190F82210B5
:10180000082908D8012202FA01F111F4B47F02D0AC
:1018100090F8230040B3072004F094F8417871B1A8
:10182000817861B190F82210082908D8012202FAC3
:1018300001F111F4B47F02D090F82300F0B140F62A
:10184000107000210022C2F2000002910262B2E395
:10185000002014E0012012E0022010E003200EE03E
:1018600004200CE005200AE0062008E09EEFA7BC5B
:10187000000000000000C8426F12833A0720C0B287
:1018800004F060F841F29001C768C2F20001D1E9AA
:1018900002325740024652F8086F73403B4303D070
:1018A0000378002B01F0D98040F6907040F610725A
:1018B0000021C2F20002C2F2000092ED070AC0E964
:1018C0000C11106A40F610740130C2F2000420625C
:1018D0001AF0CEF81FED1B2A94ED073A1FED1C8A73
:1018E0001FED1C4A44F21C1244F2241743F6C06652
:1018F000C2F20002C2F20007C2F2000633EE022A70
:10190000B5EEC02AF1EE10FAB8BFB0EE482A22EECA
:10191000042ABDEEC22A127812EE100A002A00F143
:10192000010018BF962281B2531E8B42C8BF0346E6
:101930003F889BB2FB1A38BF1344A26B02EB8302B1
:1019400043F6B863C2F200031B78002B18BF96233E
:101950005F1E8F42C8BF07463688BFB2F71B38BF2D
:101960001F44636B03EB870343F65447C2F200073F
:101970003F78002F18BF96277E1E8E4243F65C41AB
:10198000C2F20001C8BF06460988B0B2081A38BFC3
:101990003844216B45F6EC14D3ED002A92ED003A61
:1019A000C2F2000401EB8000042190ED002A40F611
:1019B00090702170C2F2000094ED017A94ED055A06
:1019C000D4ED023AD4ED034AD4ED045A90ED0C4A1A
:1019D00034EE476A94ED094A66EE056AB0EE486A4D
:1019E000F4EEC46AF1EE10FA0EDC94ED0A4AB0EEA1
:1019F000486AB1EE444AF4EEC46AF1EE10FAA4BFAC
:101A0000B0EE456AB0EE664AD4ED067A34EE63CAAB
:101A100094ED0B9A24EEC65A23EEC6BA65EE866A9A
:101A200024EE864A23EE86AA3BEE646A35EE655ABA
:101A3000B0EE48BA27EE8CCAB4EEC9CAF1EE10FA7D
:101A40000EDC94ED0C9AB0EE48BAB1EE499AB4EEC1
:101A5000C9CAF1EE10FAA4BFB0EE67BAB0EE4C9A64
:101A600079EE4A7A94ED079A16EE0B4A94ED0DAA98
:101A700055EE0B6AB0EE48BA37EEE46A74EE657A5A
:101A800029EE065AB4EECA5AF1EE10FA0EDC94EDC5
:101A90000E6AB0EE48BAB1EE46AAB4EECA5AF1EEFA
:101AA00010FAA4BFB0EE45AAB0EE49BA34EE0A9AD5
:101AB00094ED08AA47EE8B6A90ED0DBA94ED104AAA
:101AC00094ED115A94ED126A042079EE657A1FEDB7
:101AD000969A4AEE276AD4ED147A3BEE44BA94ED16
:101AE00018AA03EE897A44EE893A45EE894A46EE11
:101AF000895AD4ED136A84F83C002BEE27BA84EDA2
:101B0000017AC4ED023AC4ED034AF0EE484AC4ED4E
:101B1000045AB4EECABAF1EE10FA0EDC94ED197A5A
:101B2000F0EE484AB1EE47AAB4EECABAF1EE10FAA6
:101B3000A4BFF0EE674AB0EE4BAA94ED15BA3AEEA8
:101B400045DAD4ED1A7A66EE645A25EE64CA26EEBA
:101B5000A47A66EE243A25EE24AA75EEE64A7CEED7
:101B6000465AB0EE48CA2BEE0DDAB4EEE7DAF1EEE3
:101B700010FA0EDCD4ED1B7AB0EE48CAF1EE677AAB
:101B8000B4EEE7DAF1EE10FAA4BFB0EE4BCAF0EE15
:101B90004D7A37EECABAD4ED167A55EE8C3A94EDFA
:101BA0001CAA14EE8C7A7BEE465A73EEE64AB0EE2F
:101BB00048BA67EEA55AF4EECA5AF1EE10FA0EDCF6
:101BC00094ED1DAAB0EE48BAB1EE4AAAF4EECA5A94
:101BD000F1EE10FAA4BFB0EE65AAB0EE67BA73EEEC
:101BE0008A3AD4ED175A04EE8B7A05EE094A06EECE
:101BF000095A06EE896A84ED104A73EEE63A84EDDE
:101C0000115A84ED126A05EEA37A47EE096AC4ED13
:101C1000136A13F0A5FF43F6A0350420C2F20005B5
:101C200095ED014A95ED051A95ED025A95ED036A79
:101C300095ED047A30EE442A95ED090A287022EEDB
:101C4000013AB0EE482AB4EEC03AF1EE10FA0EDCDA
:101C500095ED0A0AB0EE482AB1EE400AB4EEC03A59
:101C6000F1EE10FAA4BFB0EE412AB0EE430AD5ED72
:101C7000061A70EE455AD5ED0B2A26EE423A65EE6D
:101C8000424A27EE020A26EE021A65EE023A33EEC7
:101C9000472A34EEC63AF0EE484A61EEA55AF4EE11
:101CA000E25AF1EE10FA0EDCD5ED0C2AF0EE484ABD
:101CB000F1EE622AF4EEE25AF1EE10FAA4BFF0EE71
:101CC000614AF0EE652A72EEE31AD5ED072A13EEAB
:101CD000241AD5ED0D3A12EE240AF0EE484A31EE00
:101CE000C63A71EE471A22EE832AB4EEE32AF1EEE9
:101CF00010FA0EDC95ED0E3AF0EE484AF1EE433A5A
:101D0000B4EEE32AF1EE10FAA4BFF0EE423AF0EEA0
:101D1000624A71EE232AD5ED083A95ED101A01EECC
:101D2000A40A05EE094A06EE095A07EE096A95ED7E
:101D3000112A95ED123A042072EEC71AD5ED142A35
:101D400003EEA10AD5ED131A70EEC10A00EE097A6E
:101D500095ED180A60EEA20A85F83C0085ED014A6F
:101D600085ED025AB0EE485A85ED036A85ED047A96
:101D7000F4EEC00AF1EE10FA0EDC95ED190AB0EEA1
:101D8000485AB1EE400AF4EEC00AF1EE10FAA4BFD0
:101D9000B0EE625AB0EE600A95ED157A70EE424AE6
:101DA000D5ED1A0A23EE456A62EE453A21EE850A20
:101DB00023EE054A62EE052A36EE615A33EEC36A17
:101DC000F0EE483A67EE244AF4EEE04AF1EE10FAFB
:101DD0000EDCD5ED1B0AF0EE483AF1EE600AF4EEA7
:101DE000E04AF1EE10FAA4BFF0EE473AF0EE640AD2
:101DF00070EEE22AD5ED160A16EE234A95ED1C7A0E
:101E000015EE230A32EEC36A34EE615A20EE866A7A
:101E1000B4EEC76AF1EE10FA0CDC95ED1D7AB1EE66
:101E2000477AB4EEC76AF1EE10FAA4BFB0EE467A74
:101E3000B0EE608A34EE074A95ED176A05EE080A9F
:101E400002EE091A03EE092A01EE893AD4ED010ADD
:101E500034EE614A85ED101A85ED112A85ED123AAE
:101E600006EE040A40EE091A94ED100AC5ED131AA5
:101E700025F04EFDB0EE408AD5ED010A95ED100A31
:101E800025F046FD9FEDC01A78EE40DAF4EEC1DA97
:101E9000F1EE10FA02DD9FEDBD0A08E09FEDBC0AED
:101EA000F4EEC0DAF1EE10FA03DA9FEDBA0A7DEE35
:101EB00080DA94ED010A94ED101A9FEDB78A20EEB6
:101EC00000AAB0EE489A01EE01AAB5EEC0AAF1EE62
:101ED00010FA10DBB0EE4A0A27F0FBF8B4EEC00AA5
:101EE000B0EE409AF1EE10FA05D7B0EE4A0A27F0AC
:101EF000F0F8B0EE409A95ED010A95ED101AF0EE6B
:101F000048EA20EE00BA01EE01BAB5EEC0BAF1EE31
:101F100010FA10DBB0EE4B0A27F0DBF8B4EEC00A83
:101F2000F0EE40EAF1EE10FA05D7B0EE4B0A27F0DA
:101F3000D0F8F0EE40EA94ED020A94ED111AB0EEFA
:101F400048BA20EE00CA01EE01CAB5EEC0CAF1EEF1
:101F500010FA10DBB0EE4C0A27F0BBF8B4EEC00A62
:101F6000B0EE40BAF1EE10FA05D7B0EE4C0A27F009
:101F7000B0F8B0EE40BA95ED020A95ED111A20EED8
:101F800000CA01EE01CAB5EEC0CAF1EE10FA10DBCC
:101F9000B0EE4C0A27F09DF8B4EEC00AB0EE408ACD
:101FA000F1EE10FA05D7B0EE4C0A27F092F8B0EE39
:101FB000408A0120029040F6907041F2801A41F66A
:101FC000C4089FED75EA4FF00009FF26B5EE00FA50
:101FD000F7EE00FAB0EE00CA00254FF0000BC2F297
:101FE0000000C2F2000AC2F200088DF84690ADF877
:101FF00044906030039000BF5FFA8BF003F094FCD4
:1020000004460078002800F0ED80574657F8180F76
:10201000796814F09DFD18B1D7E9000119E000BFFF
:1020200008EB0500F0EE4C0AC0E90799C0E90999F0
:10203000C0E90B99C0E90D9994ED040A8FEE800A6E
:1020400002F096FE0EA819F069FCDDE90E01C7E961
:102050000001D4E9022359405040084305D011A89B
:102060000121C7E9002300F80B1094ED0A1A94ED42
:10207000090A94ED0B2A21EE01DA00EE00DAB0EE47
:102080004E0A02EE02DAB5EEC0DAF1EE10FA08DB23
:10209000B0EE4D0A27F01DF8B4EEC00AF1EE10FACA
:1020A0007CD618F80500002800F0828008EB0500B7
:1020B00090ED072A90ED083A90ED014A90ED025A12
:1020C000D0ED090A90ED036AD0ED0A1A90ED047A7A
:1020D00032EE021A30EE011A33EE011A90ED0B3A8D
:1020E00024EE014A90ED0C1A00EEC54A01EEC64AF4
:1020F00090ED0D6A33EE035AD0ED061A34EE055A10
:1021000031EE051A90ED055A27EE011A90ED0E7A80
:1021100080ED070A80ED082A80ED094AC0ED0A0A21
:1021200080ED0B4A80ED0C3A06EE451A07EE611A77
:1021300080ED0D1A80ED0E6AB4EECF1AF1EE10FAB2
:1021400050DDB4EEEF1AF1EE10FA4BDADAE90001E5
:1021500014F0FEFC30B90CA819F0E0FBDDE90C012D
:10216000CAE9000170B2B0F1FF3F3EDCDAE90001DC
:1021700019F004FEB4EEEF0AF1EE10FA35DD039823
:1021800014F0EAFC5E4630E0DB0F4940DB0FC9C0CB
:10219000DB0F49C0DB0FC94000000000B0EE4D0A64
:1021A00026F097FF18F8050000287FF47FAF00BFE6
:1021B00008EB0500B0EE401A80ED070A80ED080A32
:1021C00080ED090A80ED0A0A80ED0B0A80ED0C0A09
:1021D00080ED0D0A80ED0E0AB4EECF1AF1EE10FA82
:1021E000AFDC00BF504614F0B7FC3C350AF1080ADA
:1021F0000BF1010BB42D7FF4FFAE70B20028C0F2DA
:10220000C1805FFA86FA4FFA86F9504603F08CFBDC
:10221000804611A810F80900002800F0618644F2F9
:10222000647044F26C734FF6FF72039640F6107BB5
:1022300044F6C8144FF6FF71C2F20000C2F2000368
:10224000C2F2000BC2F200040078002818BF01227D
:102250001B880028A3EB0207384618BF96309A4225
:1022600098BF3846DBE91537DBE91725247803EBFF
:10227000800C44F6D013002C4FF6FF74C2F200031A
:102280001B8818BF0124A3EB0400064618BF96362E
:102290009C4298BF064644F6986007EB860344F6D6
:1022A0009067C2F20000C2F2000700883F78002F5A
:1022B0004FF6FF7718BF0127A0EB0704264618BF8B
:1022C0009636874244F62C47C2F2000798BF26464E
:1022D0003F7805EB860044F63446C2F20006002F34
:1022E00018BF01213688002F41F28017C2F2000783
:1022F000A6EB0104254618BF9635B14209EB49010A
:1023000098BF2546CDF8049007EB810998ED093A6E
:1023100098ED0A4A98ED0B5AD8ED04CA90ED00CA20
:10232000D3ED009ADCED00AABAF1020F99ED0C0A88
:1023300099ED0D1A99ED0E2A02EB850191ED00DA67
:1023400035EE42EA34EE41FA73EE408A28D1B0EE1F
:102350006A0AF0EE690AB0EE4D1AF0EE4C1AB0EED1
:10236000682AF0EE4F2AB0EE4E3A13F0F9FBF0EE89
:10237000409A1FED770AB0EE60DAB0EE41CA19F06C
:1023800077FB75E040F69074C2F20004D4E91801BE
:1023900014F0DEFB002800F03683D4E9180139E39D
:1023A00000F02AFEB0EE603AB0EE615AB0EE414A5B
:1023B000B0EE402AB0EE6A0AF0EE690AB0EE4D1AAD
:1023C000F0EE4C1AF0EE432AB0EE443AF0EE453A05
:1023D00013F024FAB0EE682AF0EE4F2AB0EE4E3A2F
:1023E00013F0BEFB8DED000A1FED950AB0EE48DA42
:1023F000F0EE609AB0EE418A19F03AFBB0EE49AACD
:10240000B0EE4B9AB0EE6CBAB0EE6DCAF0EE40AAE8
:10241000F0EE60BAF0EE41CAF0EE61DA00F0ECFDE9
:10242000B0EE603AB0EE615AB0EE414AB0EE402AEA
:10243000B0EE6C1AF0EE6D1AF0EE4CDAB0EE48CA5F
:10244000B0EE4D8AB0EE69DAB0EE6A0AF0EE6B0AD1
:10245000DDED009AF0EE4BCAB0EE49BAB0EE4A9A02
:10246000F0EE432AB0EE443AF0EE453A13F0D6F9D6
:10247000B0EE682AF0EE4F2AB0EE4E3A13F070FB41
:1024800041F6F4301FEDBC1A40F6907498ED040A42
:102490000421C2F20000C2F2000490ED012A90ED86
:1024A000054A90ED095A90ED023A90ED036A90EDDD
:1024B000047AF0EE411A017079EEC20A60EE840AE5
:1024C000F4EEC50AF1EE10FA0EDC90ED0A5AF0EEC9
:1024D000411AB1EE455AF4EEC50AF1EE10FAA4BF66
:1024E000F0EE441AB0EE605AD0ED062AD0ED0B3A69
:1024F00063EE616A75EE437A66EE615A67EE210A11
:1025000026EE214A63EE214A76EEC61A35EEC75A08
:10251000F0EE415A62EEA76AF4EEE36AF1EE10FAC9
:102520000EDCD0ED0C3AF0EE415AF1EE633AF4EEE7
:10253000E36AF1EE10FAA4BFF0EE625AF0EE663AEA
:1025400073EEE44AD0ED072AD0ED0D3A55EE250A98
:1025500011EEA54A74EEC64A74EE471A22EEA45A4A
:10256000F0EE414AB4EEE35AF1EE10FA0EDCD0ED93
:102570000E3AF0EE414AF1EE633AB4EEE35AF1EE70
:1025800010FAA4BFF0EE453AF0EE624A74EE233A38
:10259000D0ED085A41EEA40AD0ED102A00EE032A2D
:1025A00000EE063A90ED114A90ED125A042100EE29
:1025B000076A73EEC71A7DEE624AD0ED183A45EE0F
:1025C000A10AD0ED141A00EE207AD0ED130A80F89B
:1025D0003C1080ED012A80ED023A80ED036AB0EEF6
:1025E000416A64EEA14A80ED047AF4EEE34AF1EE2A
:1025F00010FA0EDC90ED193AB0EE416AF1EE433A72
:10260000F4EEE34AF1EE10FAA4BFB0EE616AF0EE28
:10261000643AD0ED154A73EEC47AD0ED1A5A25EE1D
:10262000467A64EE466A60EE861A25EE063A64EE55
:10263000063A37EE606A36EEC57AF0EE416A64EE2D
:10264000A77AF4EEE57AF1EE10FA0EDCD0ED1B5A23
:10265000F0EE416AF1EE655AF4EEE57AF1EE10FA29
:10266000A4BFF0EE646AF0EE675A75EEE33AD0ED7F
:10267000164A17EE263AD0ED1C5A56EE261AF0EE00
:10268000416A33EEC57A73EE603A24EE876AB4EE9F
:10269000E56AF1EE10FA0EDC90ED1D7AF0EE416A7B
:1026A000F1EE475AB4EEE56AF1EE10FAA4BFF0EE8F
:1026B000465AF0EE646A73EE254AD0ED175A43EE9F
:1026C000A61A90ED1F3A40EE042A00EE054A00EEED
:1026D000205A90ED206A90ED217A042174EEE03AC0
:1026E000D0ED234A45EEA31AD0ED223A7CEE435AB0
:1026F00040EE210AD0ED271A65EEA45A80F8781032
:10270000C0ED102A80ED114A80ED125AC0ED130A77
:10271000F0EE410AF4EEE15AF1EE10FA0EDC90ED23
:10272000284AF0EE410AF1EE441AF4EEE15AF1EED5
:1027300010FAA4BFF0EE640AF0EE651AD0ED245A48
:1027400031EEC6CAD0ED296A67EE604A66EE607A5D
:1027500023EEA04A27EE205A66EE201A74EEE30A12
:1027600077EEC74AF0EE417A25EE8CCAB4EEE6CA9F
:10277000F1EE10FA0EDCD0ED2A6AF0EE417AF1EEBD
:10278000666AB4EEE6CAF1EE10FAA4BFF0EE657A1E
:10279000F0EE4C6A76EEE16AD0ED255A14EEA75AB7
:1027A000D0ED2B1A10EEA74A76EEC74A75EE630AF3
:1027B00065EEA44AF4EEE14AF1EE10FA0CDCD0ED3D
:1027C0002C1AF1EE611AF4EEE14AF1EE10FAA4BF10
:1027D000F0EE641AB0EE651A35EE215AD0ED261AE5
:1027E00040F2A00600EE814A0BF1480100EE063AE5
:1027F00000EE076A00EE237ADFEDF1AA35EE631AE8
:10280000C2F2000601EE814A40EE043A96ED040A57
:10281000D1EC030A80ED1F3A80ED206A80ED217A29
:10282000C0ED223A13F09CF9B0EE40DAB0EE60EA67
:1028300025F06EF8B0EE40CAB2EE040A0020B4EE05
:10284000C09AF1EE10FAF4EEC0EAC8BF0120DBED49
:1028500006BAF1EE10FA5DDD029908405AD09FEDFC
:10286000D93A9FEDD90A3BEECC1A3DEE812AB0EE63
:102870006F1AB4EEC38A8EEE804A83EE085A83EE56
:102880000B6A89EE000AF1EE10FAB4EEC3BAB0EEAC
:102890006F3AC8BFB0EE451AF1EE10FAB4EEEF4A47
:1028A000C8BFB0EE463AF1EE10FAB4EEEF0AC8BF78
:1028B000B0EE6F4AF1EE10FAC8BFB0EE6F0AB4EE98
:1028C000C40AF1EE10FAB4EEEA2AD4BF80EE044A4C
:1028D00084EE004AF1EE10FA24EE045A24EE054A82
:1028E000B0EE6A5A08DC9FEDB95AB4EEC52AF1EE93
:1028F00010FAA8BFB0EE425A23EE000A21EE000AF9
:1029000098ED041A20EE040A20EE050A40EE41BAC2
:10291000CBED06BA9FEDAE0ABAF1020F02D119F063
:10292000A7F823E019F0A4F8B0EE408AB0EE609A60
:10293000B0EE41AAB0EE61BA00F05EFBB0EE603AD4
:10294000B0EE615AB0EE414AB0EE402AB0EE480A0D
:10295000F0EE490AB0EE4A1AF0EE4B1AF0EE432AB6
:10296000B0EE443AF0EE453A12F058FF9FED983A37
:10297000B0EE4D2AF0EE4E2A13F072F820EEA0DAF7
:10298000B0EE40AAB0EE609AB0EE418A00EE00DAF6
:1029900001EE01DAB5EEC0DAF1EE10FAC0F2DB803A
:1029A000B0EE4D0A26F095FBB4EEC00AB0EE40BA88
:1029B000F1EE10FA80F1C1809FED860AB4EEC0BA44
:1029C000F1EE10FA40F3C7809BED060A9FED821AE4
:1029D00009A808A920EE010A14F038FF8FEE8B0A2F
:1029E0009DED08BA9DED09DABAF1020F28EE008AD2
:1029F00029EE009A2AEE00AA9FED750A40F0F480B5
:102A000019F036F814E10AA818F088FFDDE90A0188
:102A1000C4E9180119F0B2F9B1EE081AB4EEC10A0E
:102A2000F1EE10FA40F35C820020002602F07CFFF9
:102A3000007800287FF4E5AB0120012602F074FF46
:102A4000007800287FF4DDAB0220022602F06CFF44
:102A5000007800287FF4D5AB42E240F610739FED7A
:102A60005F0A9FED5F2AC2F2000393ED081AB8EEE9
:102A7000C11A21EE003AB4EEC23AF1EE10FA08DCC7
:102A8000B4EEC03AB0EE432AF1EE10FAB8BFB0EEA1
:102A9000402A90ED063AB7EE084AB6EE005A93ED9A
:102AA000070A23EE046A9FED464AB7EE003A02EEAB
:102AB000056A83EE023A36EE405AB4EEC45AF1EE9D
:102AC00010FA08DC9FED414AB4EEC45AF1EE10FA58
:102AD000A8BFB0EE454A9FED435A40F69077C2F248
:102AE000000722EE052A02EE040A91ED152A91ED67
:102AF000164A83ED070A90ED135A90ED146A35EEED
:102B0000422A36EE444A23EE022A23EE043A22EE0B
:102B1000012A23EE011A87ED0C2A87ED0D1AD0E960
:102B20001376456D00201862C1E91576CD65D2E9AE
:102B30000023C1E90223FEF7C5BEB0EE4D0A26F020
:102B4000C8FAB0EE40BA9FEDEA0AB4EEC0BAF1EEB0
:102B500010FA3FF739AF94ED0E8A94ED0F9A94ED89
:102B600010AABBF806003CEE6BBAC72800F29180B1
:102B70000130ABF8060080B2C82840F0B1819FED6B
:102B8000DB2A0BF14800B0EE4B3AD0EC030A96ED8D
:102B9000040AF0EE422A13F063F80BF1480086EDC8
:102BA000040A0121C0EC030A41F67810C2F20000C9
:102BB000017012B0BDEC108B01B0BDE8F08F00BF0A
:102BC000CDCC4C3E000016430000FA43CDCC4CBEA9
:102BD000000000000AD7233CE12E65426F12833AC1
:102BE0006666663FCDCCCC3D18F042FFB0EE40EAC1
:102BF000B0EE60FAF0EE418AF0EE619A00F0FCF976
:102C0000B0EE603AB0EE615AB0EE414AB0EE402A02
:102C1000B0EE4E0AF0EE4F0AB0EE681AF0EE691A06
:102C2000F0EE432AB0EE443AF0EE453A12F0F6FDEB
:102C30009FEDAE3AB0EE4D2AF0EE4B2A12F010FFA7
:102C400004F13800B0EE402AB0EE416AB0EE605AAE
:102C5000B0EE4A0AF0EE490AB0EE481A90EC033A98
:102C6000F0EE421AB0EE452AF0EE462A18F09CFF2C
:102C700004F13800B0EE408AB0EE609AB0EE41AA9E
:102C800080EC030ABBF806003CEE6BBAC7287FF65F
:102C90006FAF2CEEAADA2DEE2ACA2DEE0B0AB4EE97
:102CA000CC0AB0EE4C3AF1EE10FA08DCB1EE4C3A38
:102CB000B4EEC30AF1EE10FAA8BFB0EE403A9FEDB1
:102CC0008B2A0BF1480008F12405D0EC030A96ED9D
:102CD000040AF0EE422A12F0C3FF86ED040A0BF15B
:102CE0004800B0EE4B0AC0EC030A23F01EFF9FED34
:102CF00081BAB4EECB0AF1EE10FA4CDA2DEE080AE6
:102D00006DEE090A2DEE0A1AF0EE4C1A1FF0BEFF06
:102D10002DEE000AB0EE608AB0EE419A10EE100A75
:102D200028F0A8FA94ED1A0B02460B4694ED1CAB62
:102D300094ED1ECB2DEE088A2DEE099A51EC100B66
:102D400028F0AEF9824618EE100AA3460E4628F087
:102D500091FA02460B4651EC1A0B28F0A1F90746EE
:102D600019EE100A0C4628F085FA46EC18AB40F232
:102D7000A00602460B4651EC1C0B44EC197BC2F238
:102D8000000628F08DF941EC100B8BED1A8B8BEDC2
:102D90001C9B8BED1E0B41F29004C2F20004D4E99F
:102DA000040113F0D5FE002800F08C80D4E9040162
:102DB00018F0E4FFB3EE041AB4EEC10AF1EE10FA13
:102DC00000F380803078019988427BD103983146A6
:102DD00009F1340709F1300694ED191A09F1380A9E
:102DE00094ED180A94ED1A2A97ED003A96ED006AD0
:102DF000DAED003A087098ED0A5A98ED094AD8EDD4
:102E00000B2A71EE430A30EE467A75EE431A34EE21
:102E1000466A32EEE34A32EE635ADFED372A31EE8C
:102E2000E01A36EE470A34EE452A21EE013A00EE6A
:102E3000003A02EE023AB4EEE23AF1EE10FA4FDD59
:102E400060EEA00A61EEA11A47EE070A46EE061AE6
:102E500045EE050A44EE041AB6EE004A31EEE05A99
:102E6000DFED261A25EE044A84EE033A61EE030AEA
:102E700020EE030A22EE031A1FF008FF96ED002A47
:102E80009AED003A97ED004A04F1600300EE0B2A38
:102E900000EE8B4A01EE0B3A86ED002A87ED004AE0
:102EA0008AED003A95E8070007C304A818F036FD3C
:102EB000DDE90401C4E9040112B0BDEC108B01B0DE
:102EC000BDE8F08F039804F16003307095E80700C7
:102ED00007C306A818F022FDDDE90601C4E90401D4
:102EE00012B0BDEC108B01B0BDE8F08F0000000007
:102EF0000AD7233CCDCC4C3DEC51B83D0AD7A33C7E
:102F0000022806D9DFED090AB0EE600AB0EE601AB9
:102F1000704743F2101100EB8000C2F2000101EB98
:102F2000C000283090EC030A704700BF000000008A
:102F3000022806D9DFED090AB0EE600AB0EE601A89
:102F4000704743F2101100EB8000C2F2000101EB68
:102F5000C000343090EC030A704700BF000000004E
:102F600043F21010C2F2000090EDCE0A704700004C
:102F700043F21010C2F2000090EDCF0A704700003B
:102F800043F2101100EB8000C2F2000101EB0010CF
:102F900000F5CC707047000043F2101100EB800088
:102FA000C2F2000101EB001000F5C870704700008C
:102FB00043F2101100EB8000C2F2000101EB00109F
:102FC00000F5DC7070470000022806D9DFED090A21
:102FD000B0EE600AB0EE601A704743F2101100EBD9
:102FE0008000C2F2000101EBC000A03090EC030AA7
:102FF000704700BF0000000043F21010C2F2000052
:1030000000F5347090EC040A70470000022806D9DD
:10301000DFED090AB0EE600AB0EE601A704743F2C5
:10302000101100EB8000C2F2000101EBC00000F5BE
:103030008C7090EC030A704700000000022806D94B
:10304000DFED090AB0EE600AB0EE601A704743F295
:10305000101100EB8000C2F2000101EBC00000F58E
:10306000927090EC030A70470000000043F21010C9
:103070009FED060AC2F2000090F82E0301EE100A3E
:10308000B8EE411A21EE000A704700BF0AD7233C70
:1030900043F210109FED060AC2F2000090F82D03D3
:1030A00001EE100AB8EE411A21EE000A704700BF87
:1030B0000AD7233C43F21010C2F2000090F82C0310
:1030C0007047000043F21010C2F2000090EDCC0AED
:1030D000704700009FED0A0A02280FD84A1E032AF3
:1030E00088BF704700EB800001EB400043F21011F5
:1030F000C2F2000101EB800090EDD20A704700BFE0
:10310000000000009FED0A0A02280FD84A1E032A79
:1031100088BF704700EB800001EB400043F21011C4
:10312000C2F2000101EB800090EDD60A704700BFAB
:1031300000000000022884BF9FED060A704743F29A
:10314000101100EB8000C2F2000101EBC00090ED15
:10315000D20A70470000000043F21010C2F20000D3
:1031600090F820037047000002288FBF002043F230
:103170001011C2F2000101EB800098BFD0F8F407F3
:1031800070470000022888BF704743F2101100EB1F
:103190008000C2F2000101EBC000283080EC030A7D
:1031A00070470000022888BF704743F2101100EBFF
:1031B0008000C2F2000101EBC000343080EC030A51
:1031C0007047000043F21010C2F2000080EDCE0AFA
:1031D0007047000043F21010C2F2000080EDCF0AE9
:1031E00070470000B0B543F2101200EB800001F10F
:1031F0000805D1E900CEC2F2000202EB00103CCD7E
:1032000000F5D0773CC7C0E966CED1E90621C0E918
:103210006C21B0BD43F2101200EB8000C2F200023C
:1032200002EB00100A684968C0E964217047000099
:10323000B0B543F2101200EB800001F10805D1E9AE
:1032400000CEC2F2000202EB00103CCD00F5E077A8
:103250003CC7C0E96ECED1E90621C0E97421B0BDFA
:10326000022888BF704743F2101100EB8000C2F2C1
:10327000000101EBC000A03080EC030A70470000A1
:10328000022888BF704743F2101100EB8000C2F2A1
:10329000000101EBC000AC3080EC030A7047000075
:1032A00043F21010C2F2000000F5347080EC040A02
:1032B00070470000022888BF704743F2101100EBEE
:1032C0008000C2F2000101EBC00000F58C7080ECC0
:1032D000030A7047022888BF704743F2101100EBC1
:1032E0008000C2F2000101EBC00000F5927080EC9A
:1032F000030A70479FED071A43F21011C2F2000152
:1033000020EE010ABDEEC00A10EE100A81F82E036D
:10331000704700BF0000C8429FED071A43F210112A
:10332000C2F2000120EE010ABDEEC00A10EE100A42
:1033300081F82D03704700BF0000C84243F210110E
:10334000C2F2000181F82C037047000043F2101014
:10335000C2F2000080EDCC0A7047000002280FD8AE
:103360004A1E032A88BF704700EB800001EB400033
:1033700043F21011C2F2000101EB800080EDD20A8D
:103380007047000002280FD84A1E032A88BF7047E2
:1033900000EB800001EB400043F21011C2F200018B
:1033A00001EB800080EDD60A70470000022888BF3C
:1033B000704743F2101100EB8000C2F2000101EBF4
:1033C000C00080EDD20A704743F21011C2F2000132
:1033D00081F8200370470000022884BF0020704756
:1033E00080B500EB800028210C2201EBC00143F2E4
:1033F0001010C2F20000084480EC030A20F0AAF981
:10340000B0FA80F0400980BD022884BF00207047D8
:1034100080B500EB800034210C2201EBC00143F2A7
:103420001010C2F20000084480EC030A20F092F968
:10343000B0FA80F0400980BD70B500EB80004FF419
:10344000CC7243F210164B6901F1080C02EB00122A
:10345000D1E9000E9CE83010C2F20006B050B0185E
:103460004361C0E9035CC0E901E4D1E90631C0E988
:1034700006311146202220F06DF9B0FA80F04009A3
:1034800070BD000080B500EB80004FF4C87243F2BD
:10349000101302EB001208684968C2F2000398504A
:1034A000981841601146082220F054F9B0FA80F0D3
:1034B000400980BD70B500EB80004FF4DC7243F230
:1034C00010164B6901F1080C02EB0012D1E9000E55
:1034D0009CE83010C2F20006B050B0184361C0E959
:1034E000035CC0E901E4D1E90631C0E906311146C7
:1034F000202220F02FF9B0FA80F0400970BD0000C2
:10350000022884BF0020704780B500EB8000A02116
:103510000C2201EBC00143F21010C2F2000008447B
:1035200080EC030A20F016F9B0FA80F0400980BD63
:1035300080B543F210101022C2F2000000F5347181
:1035400000F5347081EC040A4FF4347120F002F974
:10355000B0FA80F0400980BD022884BF0020704787
:1035600080B500EB80004FF48C710C2201EBC001A0
:1035700043F21010C2F20000084480EC030A20F06D
:10358000E9F8B0FA80F0400980BD0000022884BF4D
:103590000020704780B500EB80004FF492710C2240
:1035A00001EBC00143F21010C2F20000084480ECAD
:1035B000030A20F0CFF8B0FA80F0400980BD000087
:1035C00080B5D0E9001243F210138068C2F2000304
:1035D000C3F8F417C3F8F827C3F8FC0703F2F47034
:1035E00040F2F4710C2220F0B5F8B0FA80F04009F6
:1035F00080BD00002DE9F043CBB0D1F80C9080469F
:103600000D465FFA89F420460BF096FD064630B170
:103610000BF08CFD58B10EF07BFF044608E020460D
:103620000EF07CFF06460BF081FD0028F3D100244C
:10363000404618F001F907460068F0B10021B5F8DE
:1036400007000A220A238DF813104D21ADF811103E
:103650000A2106968DF817908DF8164002ACADF849
:103660001410ADF81C008F204146009020461CF03D
:10367000CFFA386821461DF099FA4BB0BDE8F083C7
:1036800080B584B0C86801900869029048690390C9
:1036900001A8FFF795FF04B080BD000010B50C46EF
:1036A00018F0A0F9012818D12069B2EE041A00EE32
:1036B000100AB4EEC10AF1EE10FA1CDBB3EE031AE5
:1036C000B4EEC10AF1EE10FA15DCBDEEC00A10EE40
:1036D000100ABDE8104014F095B90A38092888BFCF
:1036E00010BD2069B7EE000A01EE100AB4EE401AD0
:1036F000F1EE10FAE9D010BD7047000070B5CAB005
:10370000054618F099F804460068D0B1002001AED3
:103710002946162216238DF80F004FF49670ADF847
:103720000D00C820ADF81400C820C0F26400049059
:10373000D920009030461CF06BFA206831461DF00D
:1037400035FA4AB070BD00002DE9F04FADF51B7D94
:1037500024AD40F678460DF1860C002705F10900EE
:10376000C2F200061D9089A8013003904DF6AC30DE
:10377000C0F2020000881C9007EB470406EB8400AF
:103780008268002A00F0088460460A2190475FFAA8
:1037900080FEBEF1000F00F0058445F2FC404FF4BE
:1037A000927100234FF0000A00260DF1860C159748
:1037B000CDF860E0C2F2000007FB0108002108F12B
:1037C00005001E910F9008F10600129008F10C0000
:1037D0000C9008F108000E9008F107000B9045F6D8
:1037E0008C10C2F2000000EBC40908F2171005901B
:1037F00008F58A7009F1030B149008F1030020907A
:1038000008F21D10079008F58B70099008F102006E
:10381000109008F109001B9008F104001A9008F2BA
:103820001510179009F10A00089009F108000D9091
:1038300009F105000A9009F102001F9009F10C003E
:10384000199009F10400169009F11400069009F18D
:103850001000119009F10D0013900020BCE000272A
:1038600089F8007047E3032781E0002E00F0EE8224
:1038700005983388B0F804E007680998002B0078B1
:10388000029027D00B980022CDF800E090F800C0FD
:10389000002000BF00EBC00506EB050E9EF80350AC
:1038A000AC450AD10E999EF804500978A94204D17A
:1038B0009EF80210029D8D422CD0013001329842B8
:1038C000E8D391B2994229D1DDF800E00F2B00F244
:1038D000BD8200E0002048F680521FFA8EF1C0F24F
:1038E0005B02D21941F1000C0199D1E90251521B3E
:1038F0007CEB0101C0F0AA820B9A00EBC001029D93
:1039000031441278CA700E9A12788D700A71591C5F
:10391000318013E0024691B29942D5D000EBC0014C
:10392000DDF800E03144B1F80920D1F805101FFAA4
:103930008EF3C91B72EB030180F08882059900EBBE
:10394000C000019B24AD30440A468988A0F80910C4
:103950001168C0F805101FFA8EF053F8081F5A6856
:10396000C91B72EB000138BFC3E90070012789F859
:103970000070012041464FF492728BF800002846F7
:10398000FCF71FFFDDF860E00D9A012F4FF00006F5
:103990000DF1860C4FF000030CD112980A99012703
:1039A000007808701088002804BF08990E80013044
:1039B0001080A0E22098022F00788DF893001F98C5
:1039C000067040F09E82179814990078097841EAB1
:1039D0000020ADF8900098E289F800301CF8004013
:1039E0009BF800000F2800F285820227DFE810F024
:1039F0001000100026004100520066007A008E0080
:103A0000A200BB00D300EF00110169016F01910119
:103A10000027FE2C00F03F82FD2C40F06C8202203B
:103A2000002710998BF8000020980770FD2008707F
:103A300019980146007800F0FE0039E220980470E1
:103A400016980670B8F8000084EA000181EA0111B6
:103A5000C9B20A0982EAC102090241EA10205040B3
:103A6000A8F8000019980078C00740F027820320CA
:103A70003EE21A98022C0470C0F029821F98002799
:103A80000146007801300870012089F800708BF839
:103A9000000030E20F980470B8F8000084EA0001DA
:103AA00081EA0111C9B20A0982EAC102090241EAA6
:103AB00010205040A8F80000052019E21298047068
:103AC000B8F8000084EA000181EA0111C9B20A09CC
:103AD00082EAC102090241EA10205040A8F8000021
:103AE000062005E20B980470B8F8000084EA000193
:103AF00081EA0111C9B20A0982EAC102090241EA56
:103B000010205040A8F800000720F1E10E98047042
:103B1000B8F8000084EA000181EA0111C9B20A097B
:103B200082EAC102090241EA10205040A8F80000D0
:103B30000820DDE11B9886700480B8F8000084EA54
:103B4000000181EA0111C9B20A0982EAC10209022F
:103B500041EA10205040A8F8000019980078C007EA
:103B60002ED10920C4E11B980146008840EA0420B8
:103B70000880B8F8000084EA000181EA0111C9B2A6
:103B80000A0982EAC102090241EA10205040A8F85D
:103B900000000A20ACE11B98014680782043887021
:103BA000B8F8000084EA000181EA0111C9B20A09EB
:103BB00082EAC102090241EA10205040A8F8000040
:103BC0002098007800280CBF0C200B2090E116985C
:103BD000002702460078411C11700C9AC9B2145497
:103BE000B8F8000084EA000282EA0212D2B2130995
:103BF00083EAC203120242EA102058400023A8F8C8
:103C0000000020980078814204BF0C208BF800004F
:103C100071E11B984EF2B045A822C0F202050146A0
:103C20008078098841EA0040002100BF5318013321
:103C30005B0803EB430755F82770874204D95A1EE7
:103C40009142F3D304E000BF194601D29142EDD373
:103C500001EB41070023002255F82710814204BFE1
:103C600005EB87021379B8F800707B4083EA0313F1
:103C7000DBB21D0985EAC3051B0243EA17236B402B
:103C8000A8F80030DBB29C424FF00E0308BF0D23B2
:103C90008BF800308142149B1C700ED1169851791C
:103CA0000278914209D90C98891A1044FCF700FE59
:103CB000DDF860E00DF1860C0026002724AD00231E
:103CC00019E198F801000227844208BF01271798DC
:103CD00089F8007004701A980078C00740F0CA8014
:103CE0001198006800283FF444AE026B62B11B9843
:103CF00001468078098841EA00414846904799F892
:103D0000007000287FF435AE022F7FF4ACAD02279F
:103D10002FE6139802460078C0F10D0101384144A6
:103D20001070000681F8164140F0E4801198016897
:103D300000293FF41BAE06982022006804904CF640
:103D40001950C5F6E03078904DF6AB10C1F683708F
:103D5000779046F68C00C9F60530769045F27F20C4
:103D6000C5F20E1075904FF23A50CAF24F5074904F
:103D70004FF27230C3F66E4073904AF68560CBF610
:103D8000673072904EF26760C6F609207190CDE9F7
:103D90006F666FAE0191103130461DF067FA2098C2
:103DA0001099007800F10A0230461DF05FFA14996C
:103DB000304602221DF05AFA0999304607221DF0BA
:103DC00055FA80206F9D47218DF824020398FCF757
:103DD0006FFD372089A92A0AA0EBD50000F03F002B
:103DE0000F18FA712A0C3D72BA712A0E7A71709A04
:103DF000130A3A71FB70130C120EBB707A7000F14B
:103E000009023046049E1DF031FA9DF8C7319DF835
:103E1000C4019DF8C5119DF8C6218DF8B6318DF805
:103E2000B7218DF8B8118DF8B9019DF8CB0107992C
:103E300006228DF8BA019DF8CA018DF8BB010DF577
:103E4000DB70FCF792FC00283FF40FAD119824AD15
:103E50000068026B002A3FF406AD1B98014680788B
:103E6000098841EA0041484690470327002818BFC7
:103E700001277CE50F201399022F8BF800004FF0EB
:103E80000D0008707FF4EBAC209800788DF893005B
:103E90001F98067097E5022010998BF80000209873
:103EA0000770FE20087019980146007840F0010064
:103EB00008704FF6FF70A8F800001CE01A98002761
:103EC00007700F98077005208BF8000013E0B8F812
:103ED000000084EA000181EA0111C9B20A0982EAFC
:103EE000C102090241EA10205040A8F80000042055
:103EF0008BF800000027209800788DF893001F9819
:103F0000067007F0FE0002281AD11F990120FD2C2F
:103F1000087089F800608BF800002ED102208BF821
:103F20000000209806704FF6FF70A8F800000AF114
:103F3000010A5FFA8AF07045FFF44EAD24E000BF3D
:103F4000DFB11D9801468078098841EA00401C993C
:103F5000884210D24DF22471C0F2020151F82020A3
:103F60004AB115982946C0B29047DDF860E00023B9
:103F70000DF1860C002601201E900AF1010A5FFA5D
:103F80008AF07045FFF428AD1E9840F67846159FDC
:103F9000C2F20006C0070BD10137042FFFF4ECABCF
:103FA00006E000BF0DF1860C0137042FFFF4E4ABEF
:103FB0000DF51B7DBDE8F08F10B540F67844C2F2D8
:103FC0000004E06820B1804700281CBF012010BD1C
:103FD000A06920B1804700281CBF012010BD606A85
:103FE00008B1804718B9206B18B1804708B101208B
:103FF00010BD002010BD00002DE9F04FCBB040F601
:104000007846C2F2000630880130308080B26328E2
:1040100073D9002002A9308001F109057168C1B18E
:10402000032102AC092209238DF81C100221C0F2E1
:10403000003106914FF6FF710591A870288032205B
:104040000021009020461BF0DBF9706821461CF02F
:104050001DFD3069C8B1032002AC012109220923EA
:104060008DF81C000220C0F2003006904FF6FF7061
:1040700005900020A87028803220009020461BF078
:10408000BFF9306921461CF001FDF069C8B1032079
:1040900002AC0221092209238DF81C000220C0F283
:1040A000003006904FF6FF7005900020A870288021
:1040B0003220009020461BF0A3F9F06921461CF045
:1040C000E5FCB06AC8B1032002AC03210922092330
:1040D0008DF81C000220C0F2003006904FF6FF70F1
:1040E00005900020A87028803220009020461BF008
:1040F00087F9B06A21461CF0C9FC42F650694DF6BA
:10410000B03B04364FF0000A02AC00270025C2F293
:104110000009C0F2020B00BF3068002800F00481E3
:1041200039F80700A0B109EB0701CB788A78013391
:10413000CB70DBB293420BD35BF8202081F803A055
:10414000E8B22146904718B1306821461CF09EFC29
:1041500009EB0708B8F80400B0B198F8072098F800
:104160000610013288F80720D2B28A420CD35BF8DD
:104170002020E8B2214688F807A0904720B1306897
:1041800021461CF083FC00BFB8F80800B0B198F8D5
:104190000B2098F80A10013288F80B20D2B28A421C
:1041A0000CD35BF82020E8B2214688F80BA090479A
:1041B00020B1306821461CF069FC00BFB8F80C0043
:1041C000B0B198F80F2098F80E10013288F80F203F
:1041D000D2B28A420CD35BF82020E8B2214688F89C
:1041E0000FA0904720B1306821461CF04FFC00BF63
:1041F000B8F81000B0B198F8132098F812100132F6
:1042000088F81320D2B28A420CD35BF82020E8B29F
:10421000214688F813A0904720B1306821461CF051
:1042200035FC00BFB8F81400B0B198F8172098F822
:104230001610013288F81720D2B28A420CD35BF8EC
:104240002020E8B2214688F817A0904720B13068B6
:1042500021461CF01BFC00BFB8F81800B0B198F85C
:104260001B2098F81A10013288F81B20D2B28A421B
:104270000CD35BF82020E8B2214688F81BA09047B9
:1042800020B1306821461CF001FC00BFB8F81C00CA
:10429000B0B198F81F2098F81E10013288F81F203E
:1042A000D2B28A420CD35BF82020E8B2214688F8CB
:1042B0001FA0904720B1306821461CF0E7FB00BFEB
:1042C000B8F82000B0B198F8232098F822100132F5
:1042D00088F82320D2B28A420CD35BF82020E8B2BF
:1042E000214688F823A0904720B1306821461CF071
:1042F000CDFB00BFB8F82400B0B198F8272098F89B
:104300002610013288F82720D2B28A420CD35BF8FB
:104310002020E8B2214688F827A0904720B13068D5
:1043200021461CF0B3FB00BF28370C360135A02F07
:104330007FF4F2AE40F2CE09C2F20009B9F90000F2
:104340000028C0F2FD804EF2F43140F6784A04F1C4
:10435000090604F11407C0F20201C2F2000AB1F822
:104360000080DAF80410A9B34EF23C04C0EBC000A0
:10437000C0F2020404EB8005A8698047B9F9000087
:10438000ADF818808DED050AD5F80110D5F8052097
:10439000D5F80930D5F80D50ADF81A00C0EBC000C3
:1043A000BB607A603960FD6000211922192314F87E
:1043B000200002AC8DF82C000020B0701620308058
:1043C000DC20009020461BF01BF8DAF804002146A0
:1043D0001CF05CFBDAF81000B8B3B9F900004EF23B
:1043E0003C04C0F20204C0EBC00004EB8005A869E5
:1043F0008047B9F90000ADF818808DED050AD5F8B1
:104400000110D5F80520D5F80930D5F80D50ADF8D4
:104410001A00C0EBC000BB607A603960FD6001210A
:104420001922192314F8200002AC8DF82C0000206A
:10443000B07016203080DC20009020461AF0E0FF9B
:10444000DAF8100021461CF021FBDAF81C00B8B3A2
:10445000B9F900004EF23C04C0F20204C0EBC00007
:1044600004EB8005A8698047B9F90000ADF8188011
:104470008DED050AD5F80110D5F80520D5F80930DD
:10448000D5F80D50ADF81A00C0EBC000BB607A60E3
:104490003960FD6002211922192314F8200002ACB2
:1044A0008DF82C000020B07016203080DC200090A9
:1044B00020461AF0A5FFDAF81C0021461CF0E6FAA7
:1044C000DAF82800B8B3B9F900004EF23C04C0F2A3
:1044D0000204C0EBC00004EB8005A8698047B9F96D
:1044E0000000ADF818808DED050AD5F80110D5F85B
:1044F0000520D5F80930D5F80D50ADF81A00C0EBFD
:10450000C000BB607A603960FD6003211922192365
:1045100014F8200002AC8DF82C000020B07016209A
:104520003080DC20009020461AF06AFFDAF828007C
:1045300021461CF0ABFAB9F800000138A9F80000D8
:104540004BB0BDE8F08F000080B54FF48061FCF700
:10455000AFF980BD70B55518082D28D83AB3044678
:104560000E4600BF04EBC1108021FCF7A1F9701CBE
:10457000C0B285421BD904EBC0108021FCF798F92A
:10458000B01CC0B2854212D904EBC0108021FCF7E8
:104590008FF9F01CC0B2854298BF70BD04EBC0100B
:1045A0008021FCF785F90436F1B28D42DAD870BD6E
:1045B0002DE9F04F81B0062A00F28E804FF0000EF8
:1045C0005FFA8EFC11F80C40002C00F081800EF197
:1045D00001045FFA84FC11F80C50002D77D00EF125
:1045E00002045FFA84FC11F80C50002D6FD00EF11C
:1045F00003045FFA84FC11F80C50002D67D00EF113
:1046000004045FFA84FC11F80C50002D5FD00EF109
:1046100005045FFA84FC11F80C50002D57D00EF100
:1046200006045FFA84FC11F80C50002D4FD00EF1F7
:1046300007045FFA84FC11F80C50002D47D00EF1EE
:1046400008045FFA84FC11F80C50002D3FD00EF1E5
:1046500009045FFA84FC11F80C50C5B30EF10A048A
:104660005FFA84FC11F80C508DB30EF10B045FFA65
:1046700084FC11F80C5055B30EF10C045FFA84FC65
:1046800011F80C501DB30EF10D045FFA84FC11F803
:104690000C50E5B10EF10E045FFA84FC11F80C50D9
:1046A000ADB10EF10F045FFA84FC11F80C5075B136
:1046B0000EF110045FFA84FC11F80C503DB10EF1BC
:1046C000110E5FFA8EF7FF2F7FF47AAF04E0A64653
:1046D00003EBCC04802C03D9002001B0BDE8F08F9F
:1046E0005FEA0E6700F0EB80ACF10104551C0CF0A2
:1046F000030E032C009505D24FF0000CBEF1000F05
:104700007BD1DCE000EBC5174CF2053AACEB0E09AF
:104710004FF0000C1F44C0F2020A07F1180600BF58
:1047200011F80C40203CE5B25A2D88BF0024E4B2B9
:104730000AEB04152401AF68D5F804B0ED685AF807
:10474000044046F8145C46F8187C46F8984C01EB97
:104750000C0446F894BC0CF1040C6578203DEFB2D3
:104760005A2F88BF0025EDB20AEB05172D01D7F8A7
:104770000880D7F804B0FF685AF8055046F80C7C5A
:1047800046F8108C46F88CBC46F8905CA578203D25
:10479000EFB25A2F88BF0025EDB20AEB05172D01A5
:1047A000D7F808B0D7F80480FF685AF8055046F8E3
:1047B000047C46F808BC46F8848C46F8885CE478AB
:1047C000203CE5B25A2D88BF0024E4B2E1450AEB53
:1047D00004154FEA0414AF68D5F80480ED685AF860
:1047E00004407560376046F87C8C46F8804C06F1D2
:1047F000200695D1BEF1000F61D011F80C404CF2AB
:10480000053803EBCC0700EBC219C0F20208203CCC
:10481000E5B25A2D88BF0024E4B2BEF1010F4FEA81
:10482000041608EB041458F806606568A268E4688A
:1048300049F8076009EB07067560009D00EBC5109D
:10484000C25100EB0702546039D00CF101028C5CBC
:1048500003EBC202203CE5B25A2D88BF0024E4B22B
:10486000BEF1020F4FEA041508EB041458F8055086
:104870006668A768E46849F8025009EB02056E60B3
:104880008750024454601AD00CF10202895C03EB99
:10489000C20209EB02032039CFB25A2F88BF002190
:1048A000C9B20F0108EB011158F807708E6849F87A
:1048B00002704F68C9685F608650104441600120F3
:1048C00001B0BDE8F08F00002DE9F043072A00F2A7
:1048D00090804FF0000E5FFA8EFC11F80C40002C17
:1048E00000F081800EF101045FFA84FC11F80C5095
:1048F000002D77D00EF102045FFA84FC11F80C5001
:10490000002D6FD00EF103045FFA84FC11F80C50F7
:10491000002D67D00EF104045FFA84FC11F80C50EE
:10492000002D5FD00EF105045FFA84FC11F80C50E5
:10493000002D57D00EF106045FFA84FC11F80C50DC
:10494000002D4FD00EF107045FFA84FC11F80C50D3
:10495000002D47D00EF108045FFA84FC11F80C50CA
:10496000002D3FD00EF109045FFA84FC11F80C50C1
:10497000C5B30EF10A045FFA84FC11F80C508DB334
:104980000EF10B045FFA84FC11F80C5055B30EF1D4
:104990000C045FFA84FC11F80C501DB30EF10D04E9
:1049A0005FFA84FC11F80C50E5B10EF10E045FFAC9
:1049B00084FC11F80C50ADB10EF10F045FFA84FCC9
:1049C00011F80C5075B10EF110045FFA84FC11F867
:1049D0000C503DB10EF1110E5FFA8EF7FF2F7FF4F0
:1049E0007AAF06E0A6460CEB4C0403EB4404802CA3
:1049F00002D90020BDE8F0835FEA0E6600F0AA80CD
:104A0000ACF101040CF0030E032C05D24FF0000CA6
:104A1000BEF1000F63D19DE000EBC2164CF6F50924
:104A2000ACEB0E084FF0000C1E44C0F2020906F178
:104A30000C0500BF11F80C70203FFCB25A2C88BF47
:104A40000027FCB2640054FA87F459F8147009EB9B
:104A50004404A48845F80C7C25F8084C01EB0C04B0
:104A60000CF1040C6778203FFEB25A2E88BF002755
:104A7000FEB2760056FA87F659F8167009EB46062C
:104A8000B68845F8067C25F8026CA678203EF7B279
:104A90005A2F88BF0026F7B27F0057FA86F659F8DA
:104AA000167009EB4606B6882F60AE80E478203C8D
:104AB000E6B25A2E88BF0024E6B27600E04556FAE8
:104AC00084F459F8146009EB4404A488C5F806601E
:104AD0006C8105F11805ADD1BEF1000F3AD011F887
:104AE0000C4000EBC2100CEB4C0203EB4202203CEA
:104AF000E5B25A2D88BF0024E5B26D00BEF1010F6A
:104B000055FA84F54CF6F504C0F2020454F8156029
:104B100004EB4505AD888650024495801AD00CF10F
:104B200001028D5C02EB420203EB4202203DEEB239
:104B30005A2E88BF0025EEB27600BEF1020F56FA5B
:104B400085F554F8156004EB4505AD8886500244A0
:104B5000958002D10120BDE8F0830CF10202895C4E
:104B600002EB420203EB42022039CFB25A2F88BF38
:104B70000021CFB27F0057FA81F154F8117004EB95
:104B8000410189888750104481800120BDE8F0836D
:104B900009B9402A01D900207047B0B54CF6183544
:104BA00000EBC1108418C0F20205402220462946BD
:104BB000FBF707FE04F1800005F140014022FBF7FE
:104BC00000FE04F5807005F180014022FBF7F9FD3D
:104BD00004F5C07005F1C0014022FBF7F2FD04F5B9
:104BE000007005F580714022FBF7EBFD04F52070A5
:104BF00005F5A0714022FBF7E4FD04F5407005F5D2
:104C0000C0714022FBF7DDFD04F5607005F5E07131
:104C10004022FBF7D6FD0120B0BD00000729034666
:104C20004FF0000098BF7A2A00D9704703EBC110FB
:104C30000021C1F61801815010440021818001201B
:104C400070470000072A84464FF0000098BF7A2B77
:104C500000D970470CEBC2100029184409D04CF25F
:104C60007001818040F20461C1F6034101600120BE
:104C7000704744F22421818042F24241C1F618017A
:104C8000016001207047000070B52DED048B0446D3
:104C900010EE900AB0EE608AB0EE409A26F0EAFA82
:104CA0009FED2D0B05460E4653EC102B26F029FBED
:104CB000002845D19FED2A0B2846314653EC102B96
:104CC00025F0E2FF054619EE100A0E4626F0D2FA4C
:104CD00002460B462846314626F00CFBA8BB9FED4A
:104CE000220A89EE081A80EE010A24F00FFA9FEDDD
:104CF0001F1AB7EE002ABFEE004A012020EE011A6B
:104D000020EE000A31EE023A32EE411A30EE044A49
:104D100030EE033A30EE011A82EE032A34EE043A02
:104D200020EE020A21EE021A23EE023A84ED010A75
:104D300084ED023A84ED031A2070BDEC048B70BD43
:104D400000202070BDEC048B70BD00202070BDECF5
:104D5000048B70BD00BF00BF2D431CEBE2361A3F31
:104D6000CDCCCCCCCCCC0040DB0F4940F304B53FDC
:104D700070B52DED068B044610EE900AB0EE608AF9
:104D8000B0EE409A26F076FA9FED3F0B05460E46B0
:104D900053EC102B26F0B5FA002870D19FED3C0B98
:104DA0002846314653EC102B25F06EFF054619EED0
:104DB000100A0E4626F05EFA02460B462846314699
:104DC00026F0A6FA00285AD09FED330A89EE081A79
:104DD00080EE018AB0EE480A24F098F99FED2F1A70
:104DE000B7EE009ABFEE00AA0120207020EE011A53
:104DF00020EE000A31EE092A39EE411A30EE0A3A65
:104E000030EE022A30EE011A33EE033A89EE022A1E
:104E100020EE020A21EE021A23EE023A84ED010A84
:104E2000B0EE480A84ED023A84ED031A24F06EF9DC
:104E30009FED1B1A20EE011A20EE000A31EE092A1E
:104E400039EE411A30EE0A3A30EE022A30EE011AFB
:104E500033EE033A89EE022A20EE020A21EE021A0C
:104E600023EE023A84ED040A84ED053A84ED061A35
:104E70002078002818BF0120BDEC068B70BD0020F3
:104E80002070BDEC068B70BD2D431CEBE2361A3F43
:104E9000CDCCCCCCCCCC0040DB0F49405E83EC3F8A
:104EA00015EF433F90F87010002900F0998090EDC5
:104EB0000C1A90ED0D2A90ED004A90ED015AD0EDBC
:104EC0000E0A90ED026AD0ED0F1A90ED037AD0ED44
:104ED000052AD0ED133A31EE013A20EE855A33EE31
:104EE000003A32EE032A90ED103A24EE022A21EE27
:104EF000864A90ED046AD0ED121A32EE452A33EE5E
:104F0000035A32EE442A90ED114A80ED0C0A80EDEE
:104F10000D1A32EE055A80ED0E2AC0ED0F0A80ED13
:104F2000102A80ED113A34EE054A21EE865A23EE1E
:104F3000A26A27EE044A34EE454A34EE464A80ED32
:104F4000124AC0ED131A90ED160A90ED171A80ED73
:104F5000170A90ED146A90ED157A90ED073A90EDEE
:104F6000062A90ED085A76EE060A20EE030A21EE94
:104F7000051A74EE200A37EE207A22EE072A32EE66
:104F8000400A30EE411A80ED161A80ED156A80ED68
:104F9000144A90ED1A0A90ED1B2A80ED1B0A90ED41
:104FA000186A90ED197A90ED0A4A90ED093A90ED61
:104FB0000B5A76EE060A20EE040A22EE052A71EE5E
:104FC000200A37EE207A23EE073A33EE400A30EE1D
:104FD000420A80ED1A0A80ED196A80ED181A7047AE
:104FE00080ED0C0A80ED0D0A80ED0E0A80ED0F0AAF
:104FF00080ED100A80ED110A80ED120A80ED130A8F
:1050000080ED140A80ED150A80ED160A80ED170A6E
:1050100080ED180A80ED190A80ED1A0A80ED1B0A4E
:10502000704700000000000070B52DED068B0446AF
:1050300010EE900AB0EE608AB0EE409A26F01AF9AF
:105040009FED690B05460E4653EC102B26F059F9DF
:10505000002840F0BA809FED660B2846314653EC9D
:10506000102B25F011FE054619EE100A0E4626F00B
:1050700001F902460B462846314626F049F9002838
:1050800000F0AA809FED5C0A89EE081A80EE018A82
:10509000B0EE480A24F03AF89FED581AB7EE009A9D
:1050A000BFEE00AA0120254620EE011A20EE000ADC
:1050B00031EE092A39EE411A30EE0A3A30EE022A70
:1050C00030EE011A33EE033A89EE022A20EE020A8C
:1050D00021EE021A23EE023A84ED000AB0EE480AED
:1050E00084ED013A84ED021A05F8700F24F00EF8F1
:1050F0009FED431A20EE011A20EE000A31EE092A34
:1051000039EE411A30EE0A3A30EE022A30EE011A38
:1051100033EE033A89EE022A20EE020A21EE021A49
:1051200023EE023A84ED030AB0EE480A84ED043A15
:1051300084ED051A23F0EAFF9FED321A20EE011AE2
:1051400020EE000A31EE092A39EE411A30EE0A3A11
:1051500030EE022A30EE011A33EE033A89EE022ACB
:1051600020EE020A21EE021A23EE023A84ED060A2C
:10517000B0EE480A84ED073A84ED081A23F0C6FF22
:105180009FED211A20EE011A20EE000A31EE092AC5
:1051900039EE411A30EE0A3A30EE022A30EE011AA8
:1051A00033EE033A89EE022A20EE020A21EE021AB9
:1051B00023EE023A84ED090A84ED0A3A84ED0B1AD3
:1051C0002C462078BDEC068B70BD002004F8700FD3
:1051D0002078BDEC068B70BD002004F8700F20789D
:1051E000BDEC068B70BD00BF2D431CEBE2361A3FB1
:1051F000CDCCCCCCCCCC0040DB0F4940BE14FB3F27
:1052000031DBD43FD9398E3FBCC5C73E000000001A
:105210002DE9F04F81B02DED108B88B04CF20004D9
:105220004FF48861C4F2000420461FF09DFC204624
:105230001FF0CCFC204620211FF096FC40F6E848E9
:10524000C2F20008B8F8060070B340F2C9318842D3
:1052500001D9002026E0A169890625D44FF6A111C5
:10526000C0F2020182B28A5C2260421CA3699B06E2
:105270005FBF92B28A5C2260821C5CBFA3695FEA56
:1052800083630ED492B28A5C2260C21CA3699B061F
:1052900007D492B204308A5C2260A2699206E1D5FA
:1052A00000E01046A8F80600A069C00600F1A5813C
:1052B0004EF2F6304CF2012940F28C0B41F69C2A5A
:1052C000DFEDD58A9FEDD09B9FEDD1FB9FEDD38A7B
:1052D0000026F0EE08CAC0F20200C0F20109C2F2D4
:1052E000000BC2F2000A05782768284600F02AFB66
:1052F000407818B9DBF8040048455DD1D8F80C10A7
:10530000481C0AF80170C8F80C0098F80120032A1C
:1053100052D8DFE802F002143146F8B2002900F05A
:10532000E680622840F063810120C8F80C60A8F88C
:10533000010088F80360A069C006D5D55DE198F842
:10534000021098F803200428394488F80210114408
:1053500088F8031030D1BAF80200011D013880B27C
:10536000A8F80810902800F24081022088F8010077
:10537000A069C006B8D540E198F8021098F803205B
:10538000394488F80210114488F80310B8F808105E
:10539000884204BF032088F80100A069C006A3D595
:1053A0002BE1B8F8080081420BD198F80200F9B25D
:1053B000884240F01A8100BFA069C0067FF594AF13
:1053C0001BE198F80300F9B2884240F00E812846AC
:1053D00000F0B8FA07464078002800F091809AF86B
:1053E0000000012840F001819AF80100072840F0F0
:1053F000FC809AF81900C00700F0F4809AF81800B1
:10540000032840F0EF809AF81B000528C0F0EA80DE
:10541000B97897F82220DAF82C00002900F0808073
:1054200040F6AC51884200F2DD800120CDE9042035
:10543000DAF83C00DAF830109AED0D0A9AED0EAA6F
:105440004042029101EE100A41F27D5081424FF03C
:10545000000038BF01200390A2F10800B0FA80F0EC
:1054600040090190DAF82000B8EEC0BAB8EEC1DA0F
:1054700025F067FBB8EECACA029B40F6D8626DEE13
:1054800028BA93424FF0000238BF0122DDF804C071
:10549000049B42EA0C02082B039B08BF0CEA0302A0
:1054A000029253EC192BCDE9032325F0EDFBCDE956
:1054B0000010DAF81C0025F044FBDDE9032325F099
:1054C000E3FB024605980B46049200284CD0D7E92E
:1054D000020197ED12AA1F4616F050FC2BEE800A2F
:1054E0003AEE000A10EE100A25F0C4FE45E0B52899
:1054F00018BFC8F80C60A069C0067FF5F5AE7CE067
:10550000DBF80400484570D19AF8000001286CD1FE
:105510009AF80100072804BF012088F8000064E021
:1055200040F6C31188421AD8D8E90401039211F059
:105530000FFB00284FD0D8E9040116F01FFCB4EE91
:10554000EC0AF1EE10FA4DDD08F1100011F004FB49
:10555000B878039A059097F82200049068E708F15C
:10556000100011F0F9FA3DE0DAF828001F4625F0A6
:10557000E8FA53EC1F2B25F087FB41EC1A0B02983D
:10558000049BDDE900212CEE28CA2BEE28BA002866
:10559000284642EC1E1B0CBF0621082147EC1D3B90
:1055A0000FF082FAB0EE4E0AB0EE4D1AB0EE4A2A73
:1055B0002846B0EE4C3AF0EE4B3AB0EE6B4A012181
:1055C000F0EE484AF0EE6E0AF0EE6D1AF0EE6A2A3E
:1055D0000FF072FC09E006A816F0A0F9DDE906015B
:1055E000C8E9040128460FF0C9FA88F80160C8F834
:1055F0000C60A069C0067FF577AE08B0BDEC108BDB
:1056000001B0BDE8F08F00BF48AFBC9AF2D77A3E38
:105610009A9999999999B93FCDCCCC3D9A99193ECF
:105620002DE9F04182B04EF2F630C0F2020004786B
:10563000204600F087F9407828B3204600F082F930
:10564000D0E9020116F09AFBB0EE001AB4EEC10ADE
:10565000F1EE10FA14DD20460FF0FCFA40F6E844B3
:10566000C2F2000404F1100011F076FA00204FF4A9
:10567000E131A08040F28C00C2F20000C0E90011CC
:1056800002B0BDE8F08140F28C05C2F200056E6800
:10569000B6F5E13F0FDB4CF20220C0F2010086427A
:1056A00029D04CF20121C0F201018E4240D0B6F562
:1056B000E13F06D0E4E7B6F5165F02D0B6F5164F27
:1056C000DED140F6E844C2F20004A788012F41D0A1
:1056D000002F6AD11EF0B8FF01464CF200006A6844
:1056E0006023C4F200001FF0F2F9A788781CA080A4
:1056F00002B0BDE8F08140F6E846C2F20006B0888C
:10570000012800F09280002840F0BA801EF09CFF33
:1057100001464CF200004FF4E1326023C4F2000075
:105720001FF0D5F9B088471CB78002B0BDE8F08102
:1057300040F6E840C2F200008288092A60D8037867
:10574000012B40F0A48000228280481C686002B0D7
:10575000BDE8F0814CF20001C4F2000188698006C6
:105760005DD44FF6A112E088C0F2020283B2D35C8E
:105770000B60431C8F69BF065FBF9BB2D35C0B609D
:10578000831C5CBF8F695FEA876746D49BB2D35C9A
:105790000B60C31C8F69BF063FD49BB20430D35C3F
:1057A0000B608B699B06E1D538E001EE106A9FED36
:1057B0004F0AB8EE411A80EE010A22F0F3F901EE29
:1057C000107AB8EE411AB4EEC10AF1EE10FA27DCF5
:1057D0004CF20120C0F20100C5E900600025A5805F
:1057E0001EF032FF01464CF200004FF4E13260231C
:1057F000C4F200001FF06BF9257002B0BDE8F08123
:105800002968B1F5165F5CD0B1F5E13F5CD0B1F528
:10581000164F5CD14FF4E13158E01846E080012783
:10582000781CA08002B0BDE8F0814CF20001C4F207
:1058300000018869800651D44FF6A112F088C0F2A9
:10584000020283B2D35C0B60431C8F69BF065FBF4B
:105850009BB2D35C0B60831C5CBF8F695FEA876778
:105860003AD49BB2D35C0B60C31C8F69BF0633D4A0
:105870009BB20430D35C0B608B699B06E1D52CE0B6
:10588000032809D20327B78002B0BDE8F081511C7C
:10589000818002B0BDE8F0819FED130A0127204608
:1058A0000021062200234FF0000800970FF016F9A0
:1058B0004FF41650A6F804806860B78002B0BDE8C7
:1058C000F0814FF4164101E04FF416516960002158
:1058D000818002B0BDE8F0811846F0800227B780D1
:1058E00002B0BDE8F08100BFCDCCCC3D00A00C489B
:1058F00041F2206200EB40010228C2F2000202EBFA
:10590000011188BF002108467047000041F6383277
:1059100000EB40010228C2F2000202EB011188BF35
:10592000002108467047000041F6A84200EB400104
:105930000228C2F2000202EB011188BF00210846D2
:105940007047000042F6282158220728C2F20001C1
:1059500010FB021188BF0021084670470EF034B9D1
:1059600070B50024C4F2020420461EF073FB2046EA
:105970001EF03AFB30B140F640200021C2F2000098
:10598000417170BD40F64025C2F2000568790328D8
:1059900012D002281ED0012818BF70BDAE79204653
:1059A00036B30C2E2BD81EF01BFBA979294481F8A5
:1059B0003F002046092157E0A87958B3042838D879
:1059C00020461EF00DFBA979294481F83F002046AE
:1059D00009215FE1AE79204626B3042E3AD81EF0A5
:1059E000FFFAA979294481F83F00204609213BE0CC
:1059F000692101221EF038FB20460B2134E01EF005
:105A0000EFFAA9790D2E294481F83F0032D12046C2
:105A1000052129E020460E2101221EF025FB20460B
:105A20000B2137E1772101221EF01EFB20460B21BE
:105A30001AE0072800F00881062800F00C810528EC
:105A400040F02E8120461EF0CBFAA979294481F836
:105A50003F00FDE01EF0C4FAA979052E294481F823
:105A60003F003BD1204605211EF0B8FAA87901304D
:105A7000A87170BDB5F84200002600BAA6EB20411F
:105A8000B5F8400000BAA6EB2042B5F8440000BAD1
:105A9000A6EB2043002000F0CDFBB5F84A0000BA89
:105AA000A6EB2041B5F8480000BAA6EB2042B5F8B5
:105AB0004C0000BAA6EB2043002000F049FCE87936
:105AC000002800F0AC80022077210022A5F8050014
:105AD00020461EF0C9FA20460021ADE0286C20F0D7
