:020000040000FA
:1000000000750020A5030000AD0300008D4D000029
:10001000B1030000B3030000B503000000000000BE
:10002000000000000000000000000000B703000016
:10003000B903000000000000BB030000BD03000086
:10004000BF030000C1030000C3030000C50300009C
:10005000C7030000C9030000CB030000CD0300006C
:10006000CF030000D1030000D3030000D50300003C
:10007000D7030000D9030000DB030000DD0300000C
:10008000DF030000E1030000E3030000E5030000DC
:10009000E7030000E9030000EB030000ED030000AC
:1000A000EF030000F1030000F3030000F50300007C
:1000B000F7030000F9030000FB030000FD0300004C
:1000C000FF03000001040000030400000504000019
:1000D00007040000090400000B0400000D040000E8
:1000E0000F040000110400000000000013040000D1
:1000F0001504000017040000190400001B04000090
:100100001D0400001F04000021040000230400005F
:10011000000000000000000025040000270400008B
:10012000290400002B0400002D0400002F0400000F
:1001300031040000330400003504000037040000DF
:1001400000000000000000000000000000000000AF
:10015000390400003B0400003D0400003F0400009F
:10016000000000000000000000000000000000008F
:10017000000000000000000000000000000000007F
:10018000000000000000000000000000000000006F
:10019000000000000000000000000000000000005F
:1001A000000000000000000000000000000000004F
:1001B000410400004304000045040000470400001F
:1001C000490400004B0400004D0400004F040000EF
:1001D00051040000530400005504000057040000BF
:1001E000590400005B0400005D04000000000000F2
:1001F000000000005F0400006104000063040000D0
:10020000650400006704000000000000000000001A
:10021000690400006B0400006D0400006F0400001E
:1002200071040000730400007504000077040000EE
:10023000790400007B0400007D0400007F040000BE
:10024000810400008304000085040000870400008E
:10025000890400008B0400008D0400008F0400005E
:1002600091040000930400009504000000F002F8DF
:1002700000F070F80AA090E8000C82448344AAF1D0
:100280000107DA4501D100F065F8AFF2090EBAE8CE
:100290000F0013F0010F18BFFB1A43F001031847BA
:1002A000185B0200385B02000A444FF0000C10F8A3
:1002B000013B13F0070408BF10F8014B1D1108BFE4
:1002C00010F8015B641E05D010F8016B641E01F884
:1002D000016BF9D113F0080F1EBF10F8014BAD1CD4
:1002E0000C1B09D16D1E58BF01F801CBFAD505E0F2
:1002F00014F8016B01F8016B6D1EF9D59142D6D34C
:10030000704700000023002400250026103A28BF73
:1003100078C1FBD8520728BF30C148BF0B60704777
:10032000662921F0B980642900F05C8100207047C3
:100330001FB521F062F89DE8030000F063FB00F0B8
:100340002BFE04000020002120F050F9E0601FBDCA
:1003500010B510BD00F041FF1146FFF7E9FF16F0A0
:100360004DF900F05FFF03B4FFF7F2FF03BC11F09B
:100370003FFB00000138FDD170470000EFF3108013
:1003800072B67047EFF310807047EFF3108062B6DB
:10039000704730BF704780F311887047EFF31180CA
:1003A000704700003F4880473F480047FEE7FEE7B0
:1003B000FEE7FEE7FEE7FEE7FEE7FEE7FEE7FEE715
:1003C000FEE7FEE7FEE7FEE7FEE7FEE7FEE7FEE705
:1003D000FEE7FEE7FEE7FEE7FEE7FEE7FEE7FEE7F5
:1003E000FEE7FEE7FEE7FEE7FEE7FEE7FEE7FEE7E5
:1003F000FEE7FEE7FEE7FEE7FEE7FEE7FEE7FEE7D5
:10040000FEE7FEE7FEE7FEE7FEE7FEE7FEE7FEE7C4
:10041000FEE7FEE7FEE7FEE7FEE7FEE7FEE7FEE7B4
:10042000FEE7FEE7FEE7FEE7FEE7FEE7FEE7FEE7A4
:10043000FEE7FEE7FEE7FEE7FEE7FEE7FEE7FEE794
:10044000FEE7FEE7FEE7FEE7FEE7FEE7FEE7FEE784
:10045000FEE7FEE7FEE7FEE7FEE7FEE7FEE7FEE774
:10046000FEE7FEE7FEE7FEE7FEE7FEE7FEE7FEE764
:10047000FEE7FEE7FEE7FEE7FEE7FEE7FEE7FEE754
:10048000FEE7FEE7FEE7FEE7FEE7FEE7FEE7FEE744
:10049000FEE7FEE7FEE7000004480549054A064B73
:1004A00070470000E90A01006D02000000680020AA
:1004B00000750020006B0020006B0020704770B5B5
:1004C000064600F083FA056806F10B0020F00704E9
:1004D000B4429CBF002070BD2B466A68BAB1106858
:1004E000A04210D304F1080188423CBF5068586014
:1004F00007D35168101941601168091B01605860E9
:100500001460101D70BD13465268002AE7D12146C1
:10051000284600F063FA0028DED170BD70B50446AD
:10052000051F00F053FA0068002C14BF446870BD2A
:10053000002C18BFAC423CBF20466468F8D3016869
:100540000A18AA4218BF456003D12A68054611441B
:10055000016028684119A1421CBF6C6070BD6168D0
:10056000696021680844286070BD00000FB41CB5A4
:10057000074B06AA7B4469460090059800F0EFFC03
:100580000020694600F0FEFC1CBC5DF814FB000076
:100590000D0A000070B5044685690068C10601D5E2
:1005A000302600E02026C00707D070BDD4E9012125
:1005B00030469047206A401C20626D1EF6D570BD03
:1005C00070B5044685690078C00707D170BDD4E9CD
:1005D000012120209047206A401C20626D1EF6D524
:1005E00070BD00002DE9F041064600241068752911
:1005F000314616A510D0AFF30080002802DA404241
:1006000013A507E031688A0701D512A502E0490762
:1006100004D511A5012401E0AFF3008000210A22D6
:1006200006F1240709E0B0FBF2FCB0FBF2F302FB99
:100630001C00303078541846491C0028F3D123465A
:100640002A463046BDE8F04100F01DBA0000000027
:100650002D0000002B000000200000002DE9F047D5
:100660004FF0000A89460446C0F820A02046E16801
:100670008847002876D0252806D0D4E90121904764
:10068000206A401C2062F1E7E16820460025884787
:10069000C4F81CA006460027C4F818A02A2E09D0CA
:1006A00030461FF02FFB38B304EB8708303EC8F804
:1006B000186019E059F8041B204604EB8702916189
:1006C000E1688847012F064618D1E069002820DA42
:1006D00025F020051DE0D8F8180000EB800006EB9F
:1006E00040003038C8F818002046E16888470646C0
:1006F0001FF008FB0028EED1012F0AD02E2E08D1C2
:100700002046E16888477F1C0646022F45F02005F9
:10071000C4DBA069002803DA404245F00105A0616E
:10072000E80701D025F01005B6B1A6F1410019285F
:1007300002D8203645F400654A46314620462560F9
:100740004D46FFF7EDFD58B1012806D0ED1D25F00F
:10075000070000F1080989E704E005F1040985E7CD
:1007600030468AE7206ABDE8F08740EA010310B509
:100770009B070FD1042A0DD310C808C9121F9C4231
:10078000F8D020BA19BA884201D9012010BD4FF023
:10079000FF3010BD1AB1D30703D0521C07E0002070
:1007A00010BD10F8013B11F8014B1B1B07D110F8CD
:1007B000013B11F8014B1B1B01D1921EF1D11846D0
:1007C00010BD032A40F2308010F0030C00F01580B9
:1007D00011F8013BBCF1020F624498BF11F801CB44
:1007E00000F8013B38BF11F8013BA2F1040298BFA9
:1007F00000F801CB38BF00F8013B11F0030300F013
:100800002580083AC0F0088051F8043B083A51F8B6
:1008100004CBA0E80810F5E7121D5CBF51F8043BBB
:1008200040F8043BAFF30080D20724BF11F8013B2E
:1008300011F801CB48BF11F8012B24BF00F8013B90
:1008400000F801CB48BF00F8012B704710B5203AE3
:10085000C0F00B80B1E81850A0E81850B1E818506B
:10086000A0E81850203ABFF4F5AF5FEA027C24BF3D
:10087000B1E81850A0E8185044BF18C918C0BDE826
:1008800010405FEA827C24BF51F8043B40F8043BEF
:1008900008BF7047D20728BF31F8023B48BF11F8A4
:1008A000012B28BF20F8023B48BF00F8012B7047FE
:1008B0004FF000020429C0F0128010F0030C00F089
:1008C0001B80CCF1040CBCF1020F18BF00F8012B07
:1008D000A8BF20F8022BA1EB0C0100F00DB85FEAD5
:1008E000C17C24BF00F8012B00F8012B48BF00F8A1
:1008F000012B70474FF0000200B513469446964610
:10090000203922BFA0E80C50A0E80C50B1F1200122
:10091000BFF4F7AF090728BFA0E80C5048BF0CC0D0
:100920005DF804EB890028BF40F8042B08BF70472E
:1009300048BF20F8022B11F0804F18BF00F8012BA0
:10094000704700000000000030B44FF0013C50F848
:10095000042B51F8043BCCFA52F4D51A20D1FCB93F
:1009600050F8042B51F8043BCCFA52F4D51A17D1A5
:10097000B4B950F8042B51F8043BCCFA52F4D51A10
:100980000ED16CB950F8042B51F8043BCCFA52F458
:10099000D51A05D1002CDAD030BC4FF000007047DA
:1009A00029BAB1FA81F111F01801D1F12000844087
:1009B000F2D1CA40CB4012F0FF0213F0FF0330BC6B
:1009C000D01A7047704770477047704700487047AB
:1009D000D8090020704770477047704738B5044603
:1009E0000A4600206946AFF30080002808BF38BDE2
:1009F00002460099204600F0D7FA012038BD0120B8
:100A000000F0E4BBF8B5AFF30080054600200C46CB
:100A1000102000BF0646A819A0420DD932466946EB
:100A20000020AFF30080070008BF00F0CFFB009864
:100A3000A04218BF0546C419FFF7C8FF0560074666
:100A4000F01D20F007004619284600F00AF8B442CD
:100A500008BFF8BDA21B31463868BDE8F84000F079
:100A6000A3BA00210160C0E901107047102070474F
:100A700010B500F095FA006810BD10B5044600F0FE
:100A80008FFA046010BD2DE9F0470D469946924655
:100A9000044600F124080168880604D5E06921F0C5
:100AA0001001216000E00120A84201DD471B00E0A9
:100AB0000027A1697A1902EB0900081AA0612078C1
:100AC000C00602D42046FFF765FD002608E0D4E901
:100AD00001211AF806009047206A401C761C20620B
:100AE0004E45F4DB2078C0060AD52046FFF752FDBC
:100AF00006E0D4E9012130209047206A401C2062A2
:100B0000381EA7F10107F4DC07E0D4E9012118F849
:100B100005009047206A401C2062281EA5F10105AF
:100B2000F3DC2046FFF74CFD2078000602D50220BA
:100B3000BDE8F0870120FBE72DE9FF4F0C461E467C
:100B40004FF0FF378BB0D2E90001DDF860800A90EA
:100B50008A46C1F30A5505B93D46002108464FF0C3
:100B60000000BAF1000F00F4400005DA00EB80004D
:100B70004FF4400101EA50004FEA9059B9F1010FDA
:100B800000DDB9460A9850EA4A000ED044F61050EB
:100B9000A5F2FF3545432F14B8F1000F1ED0754262
:100BA000291E1EDDC9F100021CE0B8F1010F4FF053
:100BB000000001D0302103E0F24305E02154401C45
:100BC000B042FBDB30460022002121540B99C1F8D2
:100BD0000880C1E900200FB0BDE8F08FBD1B6D1C7F
:100BE000DEE74A4600DA694206A800F07DFA06AB65
:100BF00093E8070003AB83E8070050460A9918F012
:100C000003F88DE80700A0F500501F380090039806
:100C1000002D0ADD42F21F014A460844002303A9C1
:100C20000390684618F06CFA09E0A0F500504A46B7
:100C30001F38002303A90390684618F076FA8DE860
:100C400007000004000C03D04FF0FF30410800E023
:100C50001046B8F1000F03D00022009215461EE0A6
:100C6000751E05D400F0BAF9303262556D1EF9D503
:100C7000B3460122084302D000227F1C04E0207802
:100C8000302801D100227F1E002A099784D01DE060
:100C9000112D07DA00F0A2F9303262556D1C50EACE
:100CA0000102F5D1084302D00098C8B10EE000213E
:100CB000681E05E0235C625C63542254401E491C9C
:100CC0008142F7DBAB46A81B401E0990002004F8C8
:100CD0000B000B98099AC0F80880C0E9002B7AE74E
:100CE00011264FF0000857E72DE9F04F88460446DB
:100CF000D21D22F0070191B0D1E90001CDE90A012E
:100D00001BF066FE02460B98C00F01D02D2007E0B5
:100D10002068810701D52B2002E0202101EAC000D4
:100D2000032A099001D0072A05DB034641462046E5
:100D300000F09AF90BE12078800601D5E06900E027
:100D40000620B8F1650F814606D0B8F1660F18D0BD
:100D5000B8F1670F70D131E00020B9F1110F0090A8
:100D600001DB112301E009F101030AAA01A90CA882
:100D7000FFF7E2FEDDE90C70002609F1010583466C
:100D800047E001204B4600904FF000470AAA01A916
:100D90000CA8FFF7D1FEDDE90DB00C995D460026E9
:100DA00010B909F101000D18B9EB050003D4C0F129
:100DB000FF3609F10105A5EB09002BE0B9F1010FA0
:100DC00001DA4FF001090020B9F1110F00904846F7
:100DD00001DD112300E003460AAA01A90CA8FFF7D0
:100DE000ABFEDDE90C704D460026834620780007F7
:100DF0000AD4AB4500DA5D4601A8012D04DD411996
:100E000011F8011C302907D04F4502DA17F1040F01
:100E100004DA012082460FE06D1EEEE7002F02DCAF
:100E2000ED1B3E4403E0781CA84200DD7D1CB81B8E
:100E300000F1010A4FF000472078000703D4AA45CB
:100E400001DB4FF0FF3A0021B7F1004F0DF14308ED
:100E50008DF8431024D002202B23002F01DA7F428B
:100E60002D230A21021EA0F1010000DC5FB197FBD7
:100E7000F1FC97FBF1F201FB1C7C17460CF1300CE6
:100E800008F801CDEEE7A8F10100037021880905FB
:100E900001D5452100E06521A0F1010800F8011C01
:100EA00009980FA9A1EB0807FF1D00B10120411906
:100EB00001EBEA70A1693844081A401EA06120784D
:100EC000C00602D42046FFF765FB099828B1D4E993
:100ED00001219047206A401C20622078C00622D55C
:100EE0002046FFF757FB1EE0002E04DBB34502DD72
:100EF00001A8805D00E03020D4E901219047206AFC
:100F0000401C2062761CAAF101005FEA000A0AD1A7
:100F100000F042F8C0680168405CD4E901219047C4
:100F2000206A401C2062281EA5F10105DCDC07E0D8
:100F3000D4E9012118F8010B9047206A401C206277
:100F4000381EA7F10107F3DC2046FFF739FB032029
:100F500011B041E601694A1C02610878704700B58A
:100F60008FB0CDE901310021059105497944CDE9E2
:100F7000031011466846FFF771FB0FB000BD00007B
:100F8000E5FFFFFF0A6802F8010B0A6070470000E6
:100F900000487047D009002000487047F009002041
:100FA00000487047D0090020034640688C4600285E
:100FB00018BF88423CBF03464068F8D318681844FD
:100FC000884207D00CF1030020F00700001D411AF1
:100FD000521A0146081D0A60FFF7A0BA30B5B0F1F9
:100FE0000A0271F100034FEA900E4EEA817EB0EBE7
:100FF0000E0061EB91014FEA101E4EEA017E10EBEC
:101000000E0041EB11114FEA102E4EEA016E10EB6B
:101010000E0041EB11214FEA104E4EEA014E10EB4B
:101020000E0041EB1141401841F100014FEAD000A0
:1010300040EA41704FEAD1014FEA810444EA9074DA
:1010400010EB800544EB01046D1944EB0404521BC2
:10105000A3414FF0000348BF0A3200D530BD401C09
:1010600041F1000130BD00002DE9F0411F4604466A
:1010700003260168072A01F4006004DB08B116A505
:1010800005E016A503E008B115A500E015A521F0BF
:1010900010002060A069C01EA0610FB1401EA061B9
:1010A0002046FFF777FA4FB1D4E90121384690473F
:1010B000206A401C2062C01C206206E0206AFAE719
:1010C000D4E9012115F8010B9047761EF8D220468D
:1010D000FFF776FABDE8F0814E414E006E616E007A
:1010E000494E4600696E66002DE9F0478146164676
:1010F0008AB0354878440DC88DE80D0032487844F0
:10110000801C03AC0DC884E80D0041F69B300844F8
:10111000372190FBF1F290FBF1F5A5F1800501FB81
:1011200012041B3C02D56442012000E00020DFF8DD
:1011300098A080460027FA44AAF1BE0A0EE0E00714
:101140000AD03246684607EB470101230AEB8101CA
:1011500017F0EBFF8DE8070064107F1C002CEED128
:10116000194F7F44AE3F19E0E80715D007EB041094
:101170000DF1180A90E80E008AE80E00C068F042EF
:1011800001D1981908903246012306A903A817F047
:10119000CCFF03AB83E807006D10641C002DE3D186
:1011A0004FF0010332466946B8F1000F03A802D0A0
:1011B00017F0A6FF01E017F0B8FFC9E90001C9F870
:1011C00008200AB0BDE8F087D411020010B500F085
:1011D00037F8BDE8104000F02EB87546FFF7D8FE8E
:1011E000AE4605006946534620F00700854618B014
:1011F00020B5FFF751F9BDE820404FF000064FF051
:1012000000074FF000084FF0000BAC46ACE8C009F7
:10121000ACE8C009ACE8C009ACE8C00921F007019E
:101220008D46704710B50446AFF300802046BDE8F8
:101230001040FFF798B8002801D010F0D9BB7047D4
:1012400010B5012805D0002103A000F021F80120ED
:1012500010BD09A1F8E7000053494752544D454DD0
:101260003A204F7574206F662068656170206D6547
:101270006D6F7279000000003A2048656170206D42
:10128000656D6F727920636F72727570746564003A
:1012900070B505460C460A2000E06D1C10F0A9FB55
:1012A00035B128780028F8D102E0641C10F0A1FBC9
:1012B00014B120780028F8D1BDE870400A2010F061
:1012C00098BB0000B0B52DED068B174CD4F8AC00E0
:1012D000C00521D49FED158A03E094ED2A0AB8EEEB
:1012E000408AD4F8AC00C005F7D5114D9FED119A96
:1012F0009FED11AA01F036FE95ED001A88EE093A2D
:101300009FED0E2A23EE0A3AB0EE414A13EE004A50
:1013100004EE021A85ED001A20460321BDEC068B6F
:10132000BDE8B04018F041B8008003400000000064
:10133000581D002000F07F45333353400AD7A33CAB
:10134000104900200A78012A18BF704708704878B1
:10135000012804BF0020487001207047B0B5094D36
:10136000287858B912F034FB012807D10648012427
:101370000A212C70017000F019F800E000242046CA
:10138000B0BD00BF180D0020940000209849002037
:101390004A78012A18BF704780B54870FFF7D0FF20
:1013A0000EF04EFC0120BDE880407047F8B52DEDF1
:1013B000068B584D687808B10024A5E012F016FBA2
:1013C0000024012840F0A0800120687012F0ECFA9F
:1013D0000EF0DEFD85ED060AAC704F4D00200121B8
:1013E000A84700200221B0EE408AA8470020032130
:1013F000B0EE409AA84700200421B0EE40AAA847CA
:10140000464E474F0120012186ED058A86ED069A5A
:1014100086ED07AA86ED080AC6E90977C6E90B77C3
:10142000C6E90D77C6E90144C6E90344A84701208F
:101430000221B0EE408AA84701200321B0EE409A75
:10144000A84701200421B0EE40AAA84702200121AC
:1014500086ED148A86ED159A86ED16AA86ED170A92
:10146000C6E91877C6E91A77C6E91C77C6E91044B9
:10147000C6E91244A84702200221B0EE408AA847DC
:1014800002200321B0EE409AA84702200421B0EECA
:1014900040AAA847002086ED238A86ED249A86ED8F
:1014A00025AA86ED260AC6E92777C6E92977C6E97F
:1014B0002B77C6E91F44C6E9214401F0D9FD194E36
:1014C0000020B0EE408AB047174C184DF0EE400AAD
:1014D000B0EE480A2046A847012001F0C9FD0120CE
:1014E000B0EE408AB047F0EE400A04F14400B0EE9E
:1014F000480AA8470220B047F0EE400A9FED0C0AC8
:1015000004F18800A84701242046BDEC068B01B0F9
:10151000F0BD00BFC80C0020A1300000C42F002087
:10152000A5D46853C93000009C19002095450100DE
:101530000AD7A33B2E4890ED080A70472C4890ED3F
:10154000070A704780B52DED068B20EEA0AAB0EEFD
:10155000409AB0EE608A00EE00AAB0EE4A0A1DF092
:10156000E0FDB4EEC00AF1EE10FA03D7B0EE4A0A7D
:101570001DF0D7FD9FED0C1A1D48B4EEC10AF1EE27
:1015800010FAC2BF81EE000A20EE088A20EE099A06
:101590004178012911BF002080ED079A80ED088A6B
:1015A0000120BDEC068B80BDCDCC4C3F1049487866
:1015B000012811BF00200120887081ED090A7047C1
:1015C0000B484178012912BF002080ED050A012057
:1015D000704700BF0648417801291CBF00207047B2
:1015E0008178012904BF022181700120704700BF6A
:1015F000C80C00202DE9F04F81B02DED108B92B07A
:10160000002003F0B7FB417881B1817871B190F887
:10161000221008290AD8012202FA01F111F4B47F3C
:1016200004D090F82300002800F09A80012003F0F5
:10163000A1FB417881B1817871B190F8221008291D
:101640000AD8012202FA01F111F4B47F04D090F813
:101650002300002800F08680022003F08BFB4178F5
:1016600079B1817869B190F82210082909D801224E
:1016700002FA01F111F4B47F03D090F8230000289E
:1016800072D0032003F076FB417879B1817869B19B
:1016900090F82210082909D8012202FA01F111F468
:1016A000B47F03D090F8230000285FD0042003F01B
:1016B00061FB417879B1817869B190F822100829ED
:1016C00009D8012202FA01F111F4B47F03D090F895
:1016D000230000284CD0052003F04CFB417871B169
:1016E000817861B190F82210082908D8012202FA05
:1016F00001F111F4B47F02D090F82300D0B306209A
:1017000003F038FB417871B1817861B190F8221013
:10171000082908D8012202FA01F111F4B47F02D09D
:1017200090F8230040B3072003F024FB417871B107
:10173000817861B190F82210082908D8012202FAB4
:1017400001F111F4B47F02D090F82300F0B140F61B
:10175000307000210022C2F2000002910262B2E366
:10176000002014E0012012E0022010E003200EE02F
:1017700004200CE005200AE0062008E09EEFA7BC4C
:10178000000000000000C8426F12833A0720C0B278
:1017900003F0F0FA41F2B001C768C2F20001D1E9EA
:1017A00002325740024652F8086F73403B4303D061
:1017B0000378002B01F0D98040F6B07040F630720B
:1017C0000021C2F20002C2F2000092ED070AC0E955
:1017D0000C11106A40F630740130C2F2000420622D
:1017E00012F09EFB1FED1B2A94ED073A1FED1C8A99
:1017F0001FED1C4A44F23C1244F2441743F6E066E3
:10180000C2F20002C2F20007C2F2000633EE022A60
:10181000B5EEC02AF1EE10FAB8BFB0EE482A22EEBB
:10182000042ABDEEC22A127812EE100A002A00F134
:10183000010018BF962281B2531E8B42C8BF0346D7
:101840003F889BB2FB1A38BF1344A26B02EB8302A2
:1018500043F6D863C2F200031B78002B18BF96230F
:101860005F1E8F42C8BF07463688BFB2F71B38BF1E
:101870001F44636B03EB870343F67447C2F2000710
:101880003F78002F18BF96277E1E8E4243F67C417C
:10189000C2F20001C8BF06460988B0B2081A38BFB4
:1018A0003844216B45F60C24D3ED002A92ED003A22
:1018B000C2F2000401EB8000042190ED002A40F602
:1018C000B0702170C2F2000094ED017A94ED055AD7
:1018D000D4ED023AD4ED034AD4ED045A90ED0C4A0B
:1018E00034EE476A94ED094A66EE056AB0EE486A3E
:1018F000F4EEC46AF1EE10FA0EDC94ED0A4AB0EE92
:10190000486AB1EE444AF4EEC46AF1EE10FAA4BF9C
:10191000B0EE456AB0EE664AD4ED067A34EE63CA9C
:1019200094ED0B9A24EEC65A23EEC6BA65EE866A8B
:1019300024EE864A23EE86AA3BEE646A35EE655AAB
:10194000B0EE48BA27EE8CCAB4EEC9CAF1EE10FA6E
:101950000EDC94ED0C9AB0EE48BAB1EE499AB4EEB2
:10196000C9CAF1EE10FAA4BFB0EE67BAB0EE4C9A55
:1019700079EE4A7A94ED079A16EE0B4A94ED0DAA89
:1019800055EE0B6AB0EE48BA37EEE46A74EE657A4B
:1019900029EE065AB4EECA5AF1EE10FA0EDC94EDB6
:1019A0000E6AB0EE48BAB1EE46AAB4EECA5AF1EEEB
:1019B00010FAA4BFB0EE45AAB0EE49BA34EE0A9AC6
:1019C00094ED08AA47EE8B6A90ED0DBA94ED104A9B
:1019D00094ED115A94ED126A042079EE657A1FEDA8
:1019E000969A4AEE276AD4ED147A3BEE44BA94ED07
:1019F00018AA03EE897A44EE893A45EE894A46EE02
:101A0000895AD4ED136A84F83C002BEE27BA84ED92
:101A1000017AC4ED023AC4ED034AF0EE484AC4ED3F
:101A2000045AB4EECABAF1EE10FA0EDC94ED197A4B
:101A3000F0EE484AB1EE47AAB4EECABAF1EE10FA97
:101A4000A4BFF0EE674AB0EE4BAA94ED15BA3AEE99
:101A500045DAD4ED1A7A66EE645A25EE64CA26EEAB
:101A6000A47A66EE243A25EE24AA75EEE64A7CEEC8
:101A7000465AB0EE48CA2BEE0DDAB4EEE7DAF1EED4
:101A800010FA0EDCD4ED1B7AB0EE48CAF1EE677A9C
:101A9000B4EEE7DAF1EE10FAA4BFB0EE4BCAF0EE06
:101AA0004D7A37EECABAD4ED167A55EE8C3A94EDEB
:101AB0001CAA14EE8C7A7BEE465A73EEE64AB0EE20
:101AC00048BA67EEA55AF4EECA5AF1EE10FA0EDCE7
:101AD00094ED1DAAB0EE48BAB1EE4AAAF4EECA5A85
:101AE000F1EE10FAA4BFB0EE65AAB0EE67BA73EEDD
:101AF0008A3AD4ED175A04EE8B7A05EE094A06EEBF
:101B0000095A06EE896A84ED104A73EEE63A84EDCE
:101B1000115A84ED126A05EEA37A47EE096AC4ED04
:101B2000136A0EF066FB43F6C0350420C2F20005CE
:101B300095ED014A95ED051A95ED025A95ED036A6A
:101B400095ED047A30EE442A95ED090A287022EECC
:101B5000013AB0EE482AB4EEC03AF1EE10FA0EDCCB
:101B600095ED0A0AB0EE482AB1EE400AB4EEC03A4A
:101B7000F1EE10FAA4BFB0EE412AB0EE430AD5ED63
:101B8000061A70EE455AD5ED0B2A26EE423A65EE5E
:101B9000424A27EE020A26EE021A65EE023A33EEB8
:101BA000472A34EEC63AF0EE484A61EEA55AF4EE02
:101BB000E25AF1EE10FA0EDCD5ED0C2AF0EE484AAE
:101BC000F1EE622AF4EEE25AF1EE10FAA4BFF0EE62
:101BD000614AF0EE652A72EEE31AD5ED072A13EE9C
:101BE000241AD5ED0D3A12EE240AF0EE484A31EEF1
:101BF000C63A71EE471A22EE832AB4EEE32AF1EEDA
:101C000010FA0EDC95ED0E3AF0EE484AF1EE433A4A
:101C1000B4EEE32AF1EE10FAA4BFF0EE423AF0EE91
:101C2000624A71EE232AD5ED083A95ED101A01EEBD
:101C3000A40A05EE094A06EE095A07EE096A95ED6F
:101C4000112A95ED123A042072EEC71AD5ED142A26
:101C500003EEA10AD5ED131A70EEC10A00EE097A5F
:101C600095ED180A60EEA20A85F83C0085ED014A60
:101C700085ED025AB0EE485A85ED036A85ED047A87
:101C8000F4EEC00AF1EE10FA0EDC95ED190AB0EE92
:101C9000485AB1EE400AF4EEC00AF1EE10FAA4BFC1
:101CA000B0EE625AB0EE600A95ED157A70EE424AD7
:101CB000D5ED1A0A23EE456A62EE453A21EE850A11
:101CC00023EE054A62EE052A36EE615A33EEC36A08
:101CD000F0EE483A67EE244AF4EEE04AF1EE10FAEC
:101CE0000EDCD5ED1B0AF0EE483AF1EE600AF4EE98
:101CF000E04AF1EE10FAA4BFF0EE473AF0EE640AC3
:101D000070EEE22AD5ED160A16EE234A95ED1C7AFE
:101D100015EE230A32EEC36A34EE615A20EE866A6B
:101D2000B4EEC76AF1EE10FA0CDC95ED1D7AB1EE57
:101D3000477AB4EEC76AF1EE10FAA4BFB0EE467A65
:101D4000B0EE608A34EE074A95ED176A05EE080A90
:101D500002EE091A03EE092A01EE893AD4ED010ACE
:101D600034EE614A85ED101A85ED112A85ED123A9F
:101D700006EE040A40EE091A94ED100AC5ED131A96
:101D80001BF046FDB0EE408AD5ED010A95ED100A34
:101D90001BF03EFD9FEDC01A78EE40DAF4EEC1DA9A
:101DA000F1EE10FA02DD9FEDBD0A08E09FEDBC0ADE
:101DB000F4EEC0DAF1EE10FA03DA9FEDBA0A7DEE26
:101DC00080DA94ED010A94ED101A9FEDB78A20EEA7
:101DD00000AAB0EE489A01EE01AAB5EEC0AAF1EE53
:101DE00010FA10DBB0EE4A0A1DF09BF9B4EEC00AFF
:101DF000B0EE409AF1EE10FA05D7B0EE4A0A1DF0A7
:101E000090F9B0EE409A95ED010A95ED101AF0EEBA
:101E100048EA20EE00BA01EE01BAB5EEC0BAF1EE22
:101E200010FA10DBB0EE4B0A1DF07BF9B4EEC00ADD
:101E3000F0EE40EAF1EE10FA05D7B0EE4B0A1DF0D5
:101E400070F9F0EE40EA94ED020A94ED111AB0EE4A
:101E500048BA20EE00CA01EE01CAB5EEC0CAF1EEE2
:101E600010FA10DBB0EE4C0A1DF05BF9B4EEC00ABC
:101E7000B0EE40BAF1EE10FA05D7B0EE4C0A1DF004
:101E800050F9B0EE40BA95ED020A95ED111A20EE28
:101E900000CA01EE01CAB5EEC0CAF1EE10FA10DBBD
:101EA000B0EE4C0A1DF03DF9B4EEC00AB0EE408A27
:101EB000F1EE10FA05D7B0EE4C0A1DF032F9B0EE93
:101EC000408A0120029040F6B07041F2A01A41F61B
:101ED000E4089FED75EA4FF00009FF26B5EE00FA21
:101EE000F7EE00FAB0EE00CA00254FF0000BC2F288
:101EF0000000C2F2000AC2F200088DF84690ADF868
:101F000044906030039000BF5FFA8BF002F026FF30
:101F100004460078002800F0ED80574657F8180F67
:101F200079680FF029F818B1D7E9000119E000BF6E
:101F300008EB0500F0EE4C0AC0E90799C0E90999E1
:101F4000C0E90B99C0E90D9994ED040A8FEE800A5F
:101F500002F01CFB0EA811F069FFDDE90E01C7E9D4
:101F60000001D4E9022359405040084305D011A88C
:101F70000121C7E9002300F80B1094ED0A1A94ED33
:101F8000090A94ED0B2A21EE01DA00EE00DAB0EE38
:101F90004E0A02EE02DAB5EEC0DAF1EE10FA08DB14
:101FA000B0EE4D0A1DF0BDF8B4EEC00AF1EE10FA25
:101FB0007CD618F80500002800F0828008EB0500A8
:101FC00090ED072A90ED083A90ED014A90ED025A03
:101FD000D0ED090A90ED036AD0ED0A1A90ED047A6B
:101FE00032EE021A30EE011A33EE011A90ED0B3A7E
:101FF00024EE014A90ED0C1A00EEC54A01EEC64AE5
:1020000090ED0D6A33EE035AD0ED061A34EE055A00
:1020100031EE051A90ED055A27EE011A90ED0E7A71
:1020200080ED070A80ED082A80ED094AC0ED0A0A12
:1020300080ED0B4A80ED0C3A06EE451A07EE611A68
:1020400080ED0D1A80ED0E6AB4EECF1AF1EE10FAA3
:1020500050DDB4EEEF1AF1EE10FA4BDADAE90001D6
:102060000EF08AFF30B90CA811F0E0FEDDE90C019A
:10207000CAE9000170B2B0F1FF3F3EDCDAE90001CD
:1020800012F0CAF8B4EEEF0AF1EE10FA35DD03985B
:102090000EF076FF5E4630E0DB0F4940DB0FC9C033
:1020A000DB0F49C0DB0FC94000000000B0EE4D0A55
:1020B0001DF037F818F8050000287FF47FAF00BF47
:1020C00008EB0500B0EE401A80ED070A80ED080A23
:1020D00080ED090A80ED0A0A80ED0B0A80ED0C0AFA
:1020E00080ED0D0A80ED0E0AB4EECF1AF1EE10FA73
:1020F000AFDC00BF50460EF043FF3C350AF1080A42
:102100000BF1010BB42D7FF4FFAE70B20028C0F2CA
:10211000C1805FFA86FA4FFA86F9504602F01EFE39
:10212000804611A810F80900002800F0618644F2EA
:10213000847044F28C734FF6FF72039640F6307B46
:1021400044F6E8144FF6FF71C2F20000C2F2000339
:10215000C2F2000BC2F200040078002818BF01226E
:102160001B880028A3EB0207384618BF96309A4216
:1021700098BF3846DBE91537DBE91725247803EBF0
:10218000800C44F6F013002C4FF6FF74C2F20003EB
:102190001B8818BF0124A3EB0400064618BF96361F
:1021A0009C4298BF064644F6B86007EB860344F6A7
:1021B000B067C2F20000C2F2000700883F78002F2B
:1021C0004FF6FF7718BF0127A0EB0704264618BF7C
:1021D0009636874244F64C47C2F2000798BF26461F
:1021E0003F7805EB860044F65446C2F20006002F05
:1021F00018BF01213688002F41F2A017C2F2000754
:10220000A6EB0104254618BF9635B14209EB4901FA
:1022100098BF2546CDF8049007EB810998ED093A5F
:1022200098ED0A4A98ED0B5AD8ED04CA90ED00CA11
:10223000D3ED009ADCED00AABAF1020F99ED0C0A79
:1022400099ED0D1A99ED0E2A02EB850191ED00DA58
:1022500035EE42EA34EE41FA73EE408A28D1B0EE10
:102260006A0AF0EE690AB0EE4D1AF0EE4C1AB0EEC2
:10227000682AF0EE4F2AB0EE4E3A0DF0BAFFF0EEBB
:10228000409A1FED770AB0EE60DAB0EE41CA11F065
:1022900047FE75E040F6B074C2F20004D4E91801BC
:1022A0000EF06AFE002800F03683D4E9180139E305
:1022B00000F088FEB0EE603AB0EE615AB0EE414AEE
:1022C000B0EE402AB0EE6A0AF0EE690AB0EE4D1A9E
:1022D000F0EE4C1AF0EE432AB0EE443AF0EE453AF6
:1022E0000DF012FEB0EE682AF0EE4F2AB0EE4E3A34
:1022F0000DF07FFF8DED000A1FED950AB0EE48DA74
:10230000F0EE609AB0EE418A11F00AFEB0EE49AAF2
:10231000B0EE4B9AB0EE6CBAB0EE6DCAF0EE40AAD9
:10232000F0EE60BAF0EE41CAF0EE61DA00F04AFE7B
:10233000B0EE603AB0EE615AB0EE414AB0EE402ADB
:10234000B0EE6C1AF0EE6D1AF0EE4CDAB0EE48CA50
:10235000B0EE4D8AB0EE69DAB0EE6A0AF0EE6B0AC2
:10236000DDED009AF0EE4BCAB0EE49BAB0EE4A9AF3
:10237000F0EE432AB0EE443AF0EE453A0DF0C4FDDB
:10238000B0EE682AF0EE4F2AB0EE4E3A0DF031FF73
:1023900041F614401FEDBC1A40F6B07498ED040AE3
:1023A0000421C2F20000C2F2000490ED012A90ED77
:1023B000054A90ED095A90ED023A90ED036A90EDCE
:1023C000047AF0EE411A017079EEC20A60EE840AD6
:1023D000F4EEC50AF1EE10FA0EDC90ED0A5AF0EEBA
:1023E000411AB1EE455AF4EEC50AF1EE10FAA4BF57
:1023F000F0EE441AB0EE605AD0ED062AD0ED0B3A5A
:1024000063EE616A75EE437A66EE615A67EE210A01
:1024100026EE214A63EE214A76EEC61A35EEC75AF9
:10242000F0EE415A62EEA76AF4EEE36AF1EE10FABA
:102430000EDCD0ED0C3AF0EE415AF1EE633AF4EED8
:10244000E36AF1EE10FAA4BFF0EE625AF0EE663ADB
:1024500073EEE44AD0ED072AD0ED0D3A55EE250A89
:1024600011EEA54A74EEC64A74EE471A22EEA45A3B
:10247000F0EE414AB4EEE35AF1EE10FA0EDCD0ED84
:102480000E3AF0EE414AF1EE633AB4EEE35AF1EE61
:1024900010FAA4BFF0EE453AF0EE624A74EE233A29
:1024A000D0ED085A41EEA40AD0ED102A00EE032A1E
:1024B00000EE063A90ED114A90ED125A042100EE1A
:1024C000076A73EEC71A7DEE624AD0ED183A45EE00
:1024D000A10AD0ED141A00EE207AD0ED130A80F88C
:1024E0003C1080ED012A80ED023A80ED036AB0EEE7
:1024F000416A64EEA14A80ED047AF4EEE34AF1EE1B
:1025000010FA0EDC90ED193AB0EE416AF1EE433A62
:10251000F4EEE34AF1EE10FAA4BFB0EE616AF0EE19
:10252000643AD0ED154A73EEC47AD0ED1A5A25EE0E
:10253000467A64EE466A60EE861A25EE063A64EE46
:10254000063A37EE606A36EEC57AF0EE416A64EE1E
:10255000A77AF4EEE57AF1EE10FA0EDCD0ED1B5A14
:10256000F0EE416AF1EE655AF4EEE57AF1EE10FA1A
:10257000A4BFF0EE646AF0EE675A75EEE33AD0ED70
:10258000164A17EE263AD0ED1C5A56EE261AF0EEF1
:10259000416A33EEC57A73EE603A24EE876AB4EE90
:1025A000E56AF1EE10FA0EDC90ED1D7AF0EE416A6C
:1025B000F1EE475AB4EEE56AF1EE10FAA4BFF0EE80
:1025C000465AF0EE646A73EE254AD0ED175A43EE90
:1025D000A61A90ED1F3A40EE042A00EE054A00EEDE
:1025E000205A90ED206A90ED217A042174EEE03AB1
:1025F000D0ED234A45EEA31AD0ED223A7CEE435AA1
:1026000040EE210AD0ED271A65EEA45A80F8781022
:10261000C0ED102A80ED114A80ED125AC0ED130A68
:10262000F0EE410AF4EEE15AF1EE10FA0EDC90ED14
:10263000284AF0EE410AF1EE441AF4EEE15AF1EEC6
:1026400010FAA4BFF0EE640AF0EE651AD0ED245A39
:1026500031EEC6CAD0ED296A67EE604A66EE607A4E
:1026600023EEA04A27EE205A66EE201A74EEE30A03
:1026700077EEC74AF0EE417A25EE8CCAB4EEE6CA90
:10268000F1EE10FA0EDCD0ED2A6AF0EE417AF1EEAE
:10269000666AB4EEE6CAF1EE10FAA4BFF0EE657A0F
:1026A000F0EE4C6A76EEE16AD0ED255A14EEA75AA8
:1026B000D0ED2B1A10EEA74A76EEC74A75EE630AE4
:1026C00065EEA44AF4EEE14AF1EE10FA0CDCD0ED2E
:1026D0002C1AF1EE611AF4EEE14AF1EE10FAA4BF01
:1026E000F0EE641AB0EE651A35EE215AD0ED261AD6
:1026F00040F2A00600EE814A0BF1480100EE063AD6
:1027000000EE076A00EE237ADFEDF1AA35EE631AD8
:10271000C2F2000601EE814A40EE043A96ED040A48
:10272000D1EC030A80ED1F3A80ED206A80ED217A1A
:10273000C0ED223A0DF05DFDB0EE40DAB0EE60EA99
:102740001BF066F8B0EE40CAB2EE040A0020B4EE08
:10275000C09AF1EE10FAF4EEC0EAC8BF0120DBED3A
:1027600006BAF1EE10FA5DDD029908405AD09FEDED
:10277000D93A9FEDD90A3BEECC1A3DEE812AB0EE54
:102780006F1AB4EEC38A8EEE804A83EE085A83EE47
:102790000B6A89EE000AF1EE10FAB4EEC3BAB0EE9D
:1027A0006F3AC8BFB0EE451AF1EE10FAB4EEEF4A38
:1027B000C8BFB0EE463AF1EE10FAB4EEEF0AC8BF69
:1027C000B0EE6F4AF1EE10FAC8BFB0EE6F0AB4EE89
:1027D000C40AF1EE10FAB4EEEA2AD4BF80EE044A3D
:1027E00084EE004AF1EE10FA24EE045A24EE054A73
:1027F000B0EE6A5A08DC9FEDB95AB4EEC52AF1EE84
:1028000010FAA8BFB0EE425A23EE000A21EE000AE9
:1028100098ED041A20EE040A20EE050A40EE41BAB3
:10282000CBED06BA9FEDAE0ABAF1020F02D111F05C
:1028300077FB23E011F074FBB0EE408AB0EE609AB3
:10284000B0EE41AAB0EE61BA00F0BCFBB0EE603A67
:10285000B0EE615AB0EE414AB0EE402AB0EE480AFE
:10286000F0EE490AB0EE4A1AF0EE4B1AF0EE432AA7
:10287000B0EE443AF0EE453A0DF046FB9FED983A43
:10288000B0EE4D2AF0EE4E2A0DF041FC20EEA0DA1B
:10289000B0EE40AAB0EE609AB0EE418A00EE00DAE7
:1028A00001EE01DAB5EEC0DAF1EE10FAC0F2DB802B
:1028B000B0EE4D0A1CF035FCB4EEC00AB0EE40BAE2
:1028C000F1EE10FA80F1C1809FED860AB4EEC0BA35
:1028D000F1EE10FA40F3C7809BED060A9FED821AD5
:1028E00009A808A920EE010A0FF084F88FEE8B0AE0
:1028F0009DED08BA9DED09DABAF1020F28EE008AC3
:1029000029EE009A2AEE00AA9FED750A40F0F480A5
:1029100011F006FB14E10AA811F088FADDE90A01BA
:10292000C4E9180111F078FCB1EE081AB4EEC10A3E
:10293000F1EE10FA40F35C820020002602F00EFA5D
:10294000007800287FF4E5AB0120012602F006FAAA
:10295000007800287FF4DDAB0220022602F0FEF9A9
:10296000007800287FF4D5AB42E240F630739FED4B
:102970005F0A9FED5F2AC2F2000393ED081AB8EEDA
:10298000C11A21EE003AB4EEC23AF1EE10FA08DCB8
:10299000B4EEC03AB0EE432AF1EE10FAB8BFB0EE92
:1029A000402A90ED063AB7EE084AB6EE005A93ED8B
:1029B000070A23EE046A9FED464AB7EE003A02EE9C
:1029C000056A83EE023A36EE405AB4EEC45AF1EE8E
:1029D00010FA08DC9FED414AB4EEC45AF1EE10FA49
:1029E000A8BFB0EE454A9FED435A40F6B077C2F219
:1029F000000722EE052A02EE040A91ED152A91ED58
:102A0000164A83ED070A90ED135A90ED146A35EEDD
:102A1000422A36EE444A23EE022A23EE043A22EEFC
:102A2000012A23EE011A87ED0C2A87ED0D1AD0E951
:102A30001376456D00201862C1E91576CD65D2E99F
:102A40000023C1E90223FEF7C5BEB0EE4D0A1CF01B
:102A500068FBB0EE40BA9FEDEA0AB4EEC0BAF1EE00
:102A600010FA3FF739AF94ED0E8A94ED0F9A94ED7A
:102A700010AABBF806003CEE6BBAC72800F29180A2
:102A80000130ABF8060080B2C82840F0B1819FED5C
:102A9000DB2A0BF14800B0EE4B3AD0EC030A96ED7E
:102AA000040AF0EE422A0DF017FC0BF1480086ED07
:102AB000040A0121C0EC030A41F69810C2F200009A
:102AC000017012B0BDEC108B01B0BDE8F08F00BFFB
:102AD000CDCC4C3E000016430000FA43CDCC4CBE9A
:102AE000000000000AD7233CE12E65426F12833AB2
:102AF0006666663FCDCCCC3D11F012FAB0EE40EAEE
:102B0000B0EE60FAF0EE418AF0EE619A00F05AFA07
:102B1000B0EE603AB0EE615AB0EE414AB0EE402AF3
:102B2000B0EE4E0AF0EE4F0AB0EE681AF0EE691AF7
:102B3000F0EE432AB0EE443AF0EE453A0DF0E4F9F7
:102B40009FEDAE3AB0EE4D2AF0EE4B2A0DF0DFFAD3
:102B500004F13800B0EE402AB0EE416AB0EE605A9F
:102B6000B0EE4A0AF0EE490AB0EE481A90EC033A89
:102B7000F0EE421AB0EE452AF0EE462A11F068FA5D
:102B800004F13800B0EE408AB0EE609AB0EE41AA8F
:102B900080EC030ABBF806003CEE6BBAC7287FF650
:102BA0006FAF2CEEAADA2DEE2ACA2DEE0B0AB4EE88
:102BB000CC0AB0EE4C3AF1EE10FA08DCB1EE4C3A29
:102BC000B4EEC30AF1EE10FAA8BFB0EE403A9FEDA2
:102BD0008B2A0BF1480008F12405D0EC030A96ED8E
:102BE000040AF0EE422A0DF077FB86ED040A0BF1A1
:102BF0004800B0EE4B0AC0EC030A19F014FF9FED39
:102C000081BAB4EECB0AF1EE10FA4CDA2DEE080AD6
:102C10006DEE090A2DEE0A1AF0EE4C1A15F062FF5D
:102C20002DEE000AB0EE608AB0EE419A10EE100A66
:102C30001EF048FB94ED1A0B02460B4694ED1CABBC
:102C400094ED1ECB2DEE088A2DEE099A51EC100B57
:102C50001EF04EFA824618EE100AA3460E461EF0EB
:102C600031FB02460B4651EC1A0B1EF041FA0746A7
:102C700019EE100A0C461EF025FB46EC18AB40F28C
:102C8000A00602460B4651EC1C0B44EC197BC2F229
:102C900000061EF02DFA41EC100B8BED1A8B8BED1C
:102CA0001C9B8BED1E0B41F2B004C2F20004D4E970
:102CB00004010EF061F9002800F08C80D4E90401D1
:102CC00011F0AAFAB3EE041AB4EEC10AF1EE10FA4A
:102CD00000F380803078019988427BD10398314697
:102CE00009F1340709F1300694ED191A09F1380A8F
:102CF00094ED180A94ED1A2A97ED003A96ED006AC1
:102D0000DAED003A087098ED0A5A98ED094AD8EDC4
:102D10000B2A71EE430A30EE467A75EE431A34EE12
:102D2000466A32EEE34A32EE635ADFED372A31EE7D
:102D3000E01A36EE470A34EE452A21EE013A00EE5B
:102D4000003A02EE023AB4EEE23AF1EE10FA4FDD4A
:102D500060EEA00A61EEA11A47EE070A46EE061AD7
:102D600045EE050A44EE041AB6EE004A31EEE05A8A
:102D7000DFED261A25EE044A84EE033A61EE030ADB
:102D800020EE030A22EE031A15F0ACFE96ED002A9F
:102D90009AED003A97ED004A04F1600300EE0B2A29
:102DA00000EE8B4A01EE0B3A86ED002A87ED004AD1
:102DB0008AED003A95E8070007C304A811F036F839
:102DC000DDE90401C4E9040112B0BDEC108B01B0CF
:102DD000BDE8F08F039804F16003307095E80700B8
:102DE00007C306A811F022F8DDE90601C4E90401D1
:102DF00012B0BDEC108B01B0BDE8F08F00000000F8
:102E00000AD7233CCDCC4C3DEC51B83D0AD7A33C6E
:102E100070B52DED088B044610EE900AB0EE41AA75
:102E2000B0EE608AB0EE409A1EF04CFA9FED2C0B8B
:102E300005460E4653EC102B1EF08BFA002848D1A5
:102E40009FED290B2846314653EC102B1DF044FF13
:102E5000054619EE100A0E461EF034FA02460B46DD
:102E6000284631461EF06EFA98BB9FED21BA2AEE35
:102E70000B0A1AF0B1FEB0EE40AA89EE080A8BEEFA
:102E8000000A1CF06BF93AEE0A1AB7EE002ABFEE00
:102E9000004A012021EE001A20EE000A31EE023A2B
:102EA00032EE411A30EE044A30EE033A30EE011AA7
:102EB00082EE032A34EE043A20EE020A21EE021AD0
:102EC00023EE023A84ED000A84ED013A84ED021A01
:102ED00000E00020BDEC088B70BD00BF00BF00BF4C
:102EE0002D431CEBE2361A3FCDCCCCCCCCCC0040F1
:102EF000DB0F49400146044800294FF040010CBF58
:102F00000022012217F075B900900240022806D96C
:102F1000DFED070AB0EE600AB0EE601A7047D749DD
:102F200000EB800001EBC000283090EC030A7047F2
:102F300000000000022806D9DFED070AB0EE600AA3
:102F4000B0EE601A7047D64900EB800001EBC0007C
:102F5000343090EC030A704700000000DC4890ED2C
:102F6000CE0A7047DA4890EDCF0A7047D84900EB97
:102F7000800001EB001000F5CC707047D44900EBE5
:102F8000800001EB001000F5C8707047DC4900EBD1
:102F9000800001EB001000F5DC707047022806D9B4
:102FA000DFED070AB0EE600AB0EE601A7047DD4947
:102FB00000EB800001EBC000A03090EC030A7047EA
:102FC00000000000E04800F5347090EC040A7047FF
:102FD000022806D9DFED080AB0EE600AB0EE601AEA
:102FE0007047D94900EB800001EBC00000F58C7000
:102FF00090EC030A704700BF00000000022806D9C9
:10300000DFED080AB0EE600AB0EE601A7047DA49E8
:1030100000EB800001EBC00000F5927090EC030A19
:10302000704700BF0000000005489FED060A90F8B9
:103030002E0301EE100AB8EE411A21EE000A704785
:10304000303100200AD7233C05489FED060A90F84E
:103050002D0301EE100AB8EE411A21EE000A704766
:10306000303100200AD7233CDA4890F82C0370470F
:10307000E44890EDCC0A70479FED080A02280CD86E
:103080004A1E032A88BF704700EB800001EB400016
:10309000E64901EB800090EDD20A70470000000085
:1030A0009FED080A02280CD84A1E032A88BF7047E1
:1030B00000EB800001EB4000DC4901EB800090ED6B
:1030C000D60A70470000000002288FBF9FED050A56
:1030D00000EB8000E14901EBC00098BF90EDD20AFF
:1030E000704700BF00000000E84890F820037047D8
:1030F00002288FBF0020E54901EB8000D0F8F407DB
:10310000704700BF022888BF7047E04900EB80008D
:1031100001EBC000283080EC030A7047022888BF0A
:103120007047E84900EB800001EBC000343080ECD0
:10313000030A7047E34880EDCE0A7047E14880ED0E
:10314000CF0A7047ED4A00EB800002EB001020220E
:1031500000F5CC70FDF735BBE84A00EB800002EBD0
:1031600000100A684968C0E964217047EC4A00EB26
:10317000800002EB0010202200F5DC70FDF721BB7F
:10318000022888BF7047EF4900EB800001EBC000C8
:10319000A03080EC030A7047022888BF7047E949D5
:1031A00000EB800001EBC000AC3080EC030A7047FC
:1031B000F44800F5347080EC040A7047022888BF98
:1031C0007047F04900EB800001EBC00000F58C7007
:1031D00080EC030A704700BF022888BF7047E949A6
:1031E00000EB800001EBC00000F5927080EC030A58
:1031F000704700BF9FED051AF24920EE010ABDEEAF
:10320000C00A10EE100A81F82E0370470000C84271
:103210009FED051AF74920EE010ABDEEC00A10EE37
:10322000100A81F82D0370470000C842F14981F867
:103230002C037047F84880EDCC0A704702280CD860
:103240004A1E032A88BF704700EB800001EB400054
:10325000F14901EB800080EDD20A704702280CD8BA
:103260004A1E032A88BF704700EB800001EB400034
:10327000F54901EB800080EDD60A7047303100201F
:10328000022888BF7047F04900EB800001EBC000C6
:1032900080EDD20A704700BFEB4981F820037047E8
:1032A00030310020022884BF0020704780B500EB39
:1032B000800028210C2201EBC001E348084480EC87
:1032C000030A16F0C5F9B0FA80F0400980BD00BFCE
:1032D00030310020022884BF0020704780B500EB09
:1032E000800034210C2201EBC001D748084480EC57
:1032F000030A16F0ADF9B0FA80F0400980BD00BFB6
:103300003031002080B5D0484FF44E71042280ED5A
:10331000CE0A00F54E7016F09BF9B0FA80F0400925
:1033200080BD00BF3031002080B5C7484FF44F71D9
:10333000042280EDCF0A00F54F7016F089F9B0FA3B
:1033400080F0400980BD00BF30310020B0B500EBF7
:1033500080004FF4CC7202EB0014BB482022051908
:103360002846FDF72EFA28462146202216F070F94D
:10337000B0FA80F04009B0BD3031002080B500EBDC
:1033800080004FF4C872B04B02EB00120868496825
:103390009850981841601146082216F059F9B0FA71
:1033A00080F0400980BD00BFB0B500EB80004FF455
:1033B000DC7202EB0014A448202205192846FDF710
:1033C00000FA28462146202216F042F9B0FA80F091
:1033D0004009B0BD30310020022884BF0020704772
:1033E00080B500EB8000A0210C2201EBC0019648C3
:1033F000084480EC030A16F02BF9B0FA80F040097B
:1034000080BD00BF3031002080B58F48102200F50C
:10341000347100F5347081EC040A4FF4347116F005
:1034200017F9B0FA80F0400980BD00BF30310020AC
:10343000022884BF0020704780B500EB80004FF465
:103440008C710C2201EBC0017F48084480EC030A18
:1034500016F0FEF8B0FA80F0400980BD303100204F
:10346000022884BF0020704780B500EB80004FF435
:1034700092710C2201EBC0017348084480EC030AEE
:1034800016F0E6F8B0FA80F0400980BD3031002037
:1034900080B59FED0B1A6C49042220EE010ABDEEA7
:1034A000C00A10EE100A81F82E0301F54B704FF49C
:1034B0004B7116F0CDF8B0FA80F0400980BD00BF26
:1034C0000000C8423031002080B59FED0B1A5E49E4
:1034D000042220EE010ABDEEC00A10EE100A81F8A7
:1034E0002D0301F54B704FF44B7116F0B1F8B0FAA3
:1034F00080F0400980BD00BF0000C842303100208C
:1035000080B55149042281F82C0301F54B704FF42A
:103510004B7116F09DF8B0FA80F0400980BD00BFF5
:103520003031002080B548484FF44C71042280EDC2
:10353000CC0A00F54C7016F08BF8B0FA80F0400918
:1035400080BD00BF3031002002460020022A18D87A
:103550004B1E032B88BF704780B502EB820004220C
:1035600001EB40004FF4527101EB800136480844F2
:1035700080ED000A16F06CF8B0FA80F04009BDE862
:10358000804070473031002002460020022A18D8BF
:103590004B1E032B88BF704780B502EB82000422CC
:1035A00001EB40004FF4567101EB800126480844BE
:1035B00080ED000A16F04CF8B0FA80F04009BDE842
:1035C0008040704730310020022884BF00207047BF
:1035D00080B500EB80004FF45271042201EBC00172
:1035E0001948084480ED000A16F032F8B0FA80F06D
:1035F000400980BD3031002080B51349042281F894
:10360000200301F548704FF4487116F021F8B0FA24
:1036100080F0400980BD00BF3031002080B5D0E986
:1036200000128068084BC3F8F417C3F8F827C3F8F2
:10363000FC0703F2F47040F2F4710C2216F008F863
:10364000B0FA80F0400980BD303100202DE9F04310
:10365000CBB0D1F80C9080460D465FFA89F4204635
:1036600007F072FB064618B920460AF05FFD0646D1
:1036700007F064FB18B10AF053FD044600E0002493
:10368000404610F08FFB07460068F0B10021B5F806
:1036900007000A220A238DF813104D21ADF81110EE
:1036A0000A2106968DF817908DF8164002ACADF8F9
:1036B0001410ADF81C008F2041460090204613F0F6
:1036C000E9FC3868214614F08BF94BB0BDE8F08373
:1036D000F8B5C8680190086902904869039001A88C
:1036E000FFF79CFF8FBD10B50C4610F0D7FB0128EB
:1036F00018D12069B2EE041A00EE100AB4EEC10A25
:10370000F1EE10FA1CDBB3EE031AB4EEC10AF1EECF
:1037100010FA15DCBDEEC00A10EE100ABDE810402C
:103720000EF044BA0A38092888BF10BD2069B7EEE8
:10373000000A01EE100AB4EE401AF1EE10FAE9D0D8
:1037400010BD704770B5CAB0054610F02BFB04469B
:103750000068C0B1002001AE2946162216238DF85C
:103760000F004FF49670ADF80D00C820ADF81400AE
:1037700006480490D9200090304613F08BFC206856
:10378000314614F02DF94AB070BD00BFC800640086
:103790002DE9F04FADF5077D22A8002509301390E3
:1037A000DFF85406008812901FE3DFF82C0805EBC1
:1037B000450400EB84008268002A00F015830DF1B7
:1037C0007E000A219047C0B24FF4927100230B95FE
:1037D0004FF000081C90DFF8240605FB0101DFF81C
:1037E00020061D9100EBC40606F10A0006F1080749
:1037F000B51C06F1030A0F90701D1890002015905B
:1038000006F10C001090301D0E9006F1140004908B
:1038100006F11000099006F10D000C90481D07906C
:10382000881D199001F10C00069001F108000A9022
:10383000C81D0D9001F21710029001F58A701690C4
:10384000C81C1E9001F21D10039001F58B700590AD
:10385000881C089001F109001490081D119001F2D4
:1038600015101790CDE91A571C995FFA88F0884215
:1038700080F0B6824FF000090DF17E0186F80090CD
:1038800011F800B09AF800100F2900F2E781022029
:10389000DFE811F010001000260037004900550045
:1038A00061006D00790087009600A700BE00D90076
:1038B000E0000901BBF1FE0F00F09781BBF1FD0FA5
:1038C00040F0BB81022008998AF800001E9803701E
:1038D000FD20087010980146007800F0FE0091E18C
:1038E0001E981D99002480F800B00E980370584669
:1038F0000EF0A4F910980078C00740F089810320E9
:103900008BE11198BBF1020F80F800B0C0F08B8101
:1039100028784FF0000901302870012086F80090C7
:103920008AF800009AE107981D9980F800B058467F
:103930000EF084F9DDE91A57002305207BE1199880
:103940001D9980F800B058460EF078F9DDE91A5755
:10395000002306206FE10D981D9980F800B05846AD
:103960000EF06CF9DDE91A570023072063E10A988D
:103970001D9980F800B058460EF060F9DDE91A573D
:103980000023082057E114981D998370A0F800B017
:1039900058460EF053F910980078C0071AD1092044
:1039A0003BE114980146008840EA0B2008801D99ED
:1039B00058460EF043F9DDE91A5700230A203AE190
:1039C00014980146807840EA0B0088701D9958468B
:1039D0000EF034F91E98007800280CBF0C200B2044
:1039E0001BE10E9804460078411C2170069901F8ED
:1039F00000B01D9958460EF021F9DDE91A571E98BE
:103A0000217800230078814240F017810C2012E1D8
:103A10001498DFF81854002701468078098841EA95
:103A20000040A8217B1C00E0511E8F4280F0AE8038
:103A30005A18520802EB420455F824408442F3D845
:103A40001746EFD3A3E01D98407883454FF002005E
:103A500008BF01201799307081F800B011990978DA
:103A6000C90740F083800999096879B10A6B4AB1A6
:103A7000149801468078098841EA00413046904711
:103A800020B9307802281CBF0320307001201D9916
:103A90004FF492728AF8000022A8FCF792FE1A9D59
:103AA0001B9F0023C9E00C981D9A04460078C0F1C2
:103AB0000D01013811442070000681F816B140F064
:103AC000BC800998D0F80090B9F1000F00F0778120
:103AD00004986DAD09F1100120220768C948CDE9AD
:103AE0006D33D04B7690C8481C467590C74874908B
:103AF000C7487390C7487290C7487190C748709084
:103B0000C7486F90284698471E980899007800F19A
:103B10000A022846A047169928460222A04705997E
:103B200028460722A0470DF5D7742846214614F0F1
:103B30002DF8039920460622FCF717FE002800F016
:103B4000DB8009980068026B002A00F01581149848
:103B500001468078098841EA0041304690474FF09D
:103B60000309002818BF4FF001092AE10F210C9A20
:103B700002288AF800104FF00D01117040F0B78054
:103B80001E982B7000788DF88B0075E03A4602EB9A
:103B900042010027002455F82120824203BF05EB93
:103BA00081042079012700201D9D29460EF046F84A
:103BB0002878002383454FF00E0008BF0D208AF8B7
:103BC0000000002F169880F800B0DDE91A5734D0B5
:103BD0000E986179027891422FD90698891A10447B
:103BE000FCF766FEDDE91A575BE7022008998AF8C0
:103BF00000001E980370FE2008701098014600789F
:103C000040F0010008701D994FF6FF70088014E025
:103C1000119804700798047005208AF800000023AA
:103C2000DDE91A5709E01D9958460EF007F8DDE95D
:103C30001A57002304208AF8000096F80090B9F182
:103C4000010F11D11998189900780870388808B9AF
:103C50000F990B8001304FF0010938801E982B70AE
:103C600000788DF88B0010E01E98B9F1020F2B70D0
:103C700000788DF88B0008D117981699007809788C
:103C800041EA0020ADF8880003E009F0FE000228B8
:103C900011D10120BBF1FD0F287033708AF80000AC
:103CA00022D102201D998AF800001E9803704FF659
:103CB000FF70088018E0B9F1000F15D01398014685
:103CC0008078098841EA0040129988420AD258490E
:103CD00051F8202032B10B9822A9C0B29047DDE9FB
:103CE0001A5700230120159008F10108BCE54FF098
:103CF000000986F80090B1E7002F3FF422AF029848
:103D00003A46019732F8021BB0F804C0D0F800E040
:103D100005980378002001E00932013088420CD276
:103D20000D9D54782F78A742F6D10A9D94782F786C
:103D3000A742F1D11478A342EED180B281421ED1C4
:103D40000F293FF6FEAE384C1FFA8CF014EB0E0430
:103D500040F10005D9E90270E41B019C75EB0000FD
:103D6000FFF4EFAE0D98007850700A980078137049
:103D70009070481C20800DE04FF0030921E0D2F83C
:103D80000330B2F807001FFA8CF1B3EB0E03884141
:103D9000BFF4D7AE029801468088A2F807000868F1
:103DA000C2F803001FFA8CF059F8081FD9F8042054
:103DB000B1EB0E0172EB000138BFC9E900E04FF032
:103DC000010901201D9986F800904FF492728AF83B
:103DD000000022A8FCF7F5FCDDE91A5700232EE7C6
:103DE00015980B9DC00703D10135032D7FF6DDAC7F
:103DF0000DF5077DBDE8F08FF83B02001C55002053
:103E0000AC59002019CDE05BABD9831F8C68059BB2
:103E10007F520E513AF54FA572F36E3C85AE67BBEB
:103E200067E6096ACD7D0100808D5B00FC440200DD
:103E300070370200B0B56848002500F10C0401E0BD
:103E40000C340135032D84BF0020B0BD206800284C
:103E5000F6D080470028F3D00120B0BD2DE9F04F07
:103E6000CDB0DFF87481B8F800000130A8F8000088
:103E700080B263282BD9594804AC002546464FF040
:103E8000320B4FF0000926F8045B04F10907824663
:103E90001AE03068A8B103205FFA89F109220923EA
:103EA0008DF824004FF6FF70CDE9070A2046BD705B
:103EB0003D80CDF800B012F0DDFE3068214613F0F1
:103EC00024FD0C3609F10109B9F1040FE1D1444E8A
:103ED000DFF810A14FF000090DF1100B002425E0D0
:103EE00004EB440008EB800555F8040FE0B100270F
:103EF00018E036F82700A0B106EB8701CB788A7866
:103F00000133CB70DBB293420BD35AF8202081F8F7
:103F10000390E0B25946904718B12868594613F00B
:103F2000F4FC01370A2FE4D128360134042CD7D110
:103F30002D48B0F9000000284BDB0BF114002C4C8D
:103F400008F104070BF109064FF000080390274819
:103F50000088029035E0386880B323480546B0F900
:103F60000000C0EBC00004EB8009D9F818008047BE
:103F70000298B5F900A009F101011022ADF8200066
:103F800003988DED070AADF822A0FCF71AFCCAEBE6
:103F9000CA005FFA88F11922192314F820008DF85D
:103FA00034000020B07016203080DC20009058468D
:103FB00012F060FE3868594613F0A7FC0C3708F180
:103FC0000108B8F1040FC6D107480146008801383E
:103FD00008804DB0BDE8F08F840C00200200000383
:103FE000702E0020FC3B0200CE0000204044020066
:103FF0008840020090ED081A0022002130EE410AAC
:10400000B5EEC00AF1EE10FAC8BF012290F83430C4
:104010009A4208D19FED461A90ED0E2A32EE011A0F
:1040200080ED0E1A0AE09FED411AB5EEC00A8163D9
:10403000F1EE10FAC8BF012180F8341021EE012AF8
:10404000B7EE007A9FED3B3A9FED3B4A90ED005A68
:10405000F2EE0E0A90ED016A21EE021AF0EE471A16
:104060009FED362A41EE031A84EE053AF4EEE01A8B
:1040700001EE027AF1EE10FAC8BFF0EE601AF4EE2B
:10408000C31AF1EE10FAC8BFF0EE431A25EE211A5A
:10409000B4EEE07A9FED2A3AF1EE10FAC8BFB0EE26
:1040A000607A26EE072A20EE011A20EE022A81EE1F
:1040B000030AB0EEC23AB0EEC04AB4EEC43AF1EE32
:1040C00010FA02DD9FED191A09E0B9EE003A9FEDF2
:1040D000180A22EE033A03EE001AB0EE420A9FEDF0
:1040E000143A0021B0EE432A0BE04218043192ED5D
:1040F000094A31EE044A00EE024A82ED084A32EEE5
:10410000032A0C29F1D190ED053A90ED064A00EE14
:10411000021A074930EE040A31EE031A016380EDFA
:10412000051A80ED060A80ED0B1A704700000000AA
:104130000AD7A33B0000FA436666663F00409C45F1
:104140000AD7A33C90ED043A90ED0F1A90ED032AA4
:1041500090ED0C6A90ED065A90ED054A80ED070A45
:10416000B0EE437A11EE007A26EE021A01EE073A1B
:1041700080ED043A35EE031A06EE014A80ED054A59
:10418000704780B54FF48061FCF792FB80BD70B53D
:104190005618082E00D970BD0C460546E0B286427E
:1041A00098BF70BD05EBC0108021FCF781FB013486
:1041B000F4E70000B0B5062A12D84FF0000E4FF019
:1041C000FF3C5FFA8EF4FF2C0AD00D5D0CF1010C60
:1041D0000EF1010E002DF4D103EBC405802D01D9A1
:1041E0000020B0BD00EBC210DFF844E0184480307E
:1041F000BCF1000F04BF0120B0BD11F8013BACF1D0
:10420000010C203BDDB25A2D88BF0023DBB20EEB40
:104210000315AA686C68ED6802601A01456040F8F1
:104220007C4C5EF8022040F8802C0830E0E700BFAC
:1042300055230200B0B5072A14D84FF0000E4FF0F6
:10424000FF3C5FFA8EF4FF2C0CD00D5D0CF1010CDD
:104250000EF1010E002DF4D104EB440503EB4505EE
:10426000802D01D90020B0BD00EBC2100E4A1844C9
:10427000BCF1000F04BF0120B0BD11F8013BACF14F
:10428000010C203BDDB25A2D88BF0023DDB26D004A
:1042900055FA83F352F8135002EB43039B880560F1
:1042A00083800630E4E700BF4529020009B9402AAF
:1042B00001D90020704770B500EBC110074E0025F2
:1042C0008418B5F5007F04BF012070BD04EB4500E4
:1042D00071194022FCF775FA4035F2E7672B0200AE
:1042E000072903464FF0000098BF7A2A00D970478B
:1042F00003EBC1100349815010440021818001204B
:10430000704700BF00001818072A84464FF00000CD
:1043100098BF7A2B00D970470CEBC21000291844C3
:1043200004D04CF270018180054903E044F224215D
:104330008180024901600120704700BF42241818A3
:104340000406031C9FED050A0021F2EE040AC0E9F1
:104350000411C0E9061100F031B800BF0000484365
:10436000017809B390ED044A90ED055A90ED011AD9
:1043700090ED022A90ED066A90ED033A90ED077AEF
:1043800074EE040A80ED054A70EE800A35EE205A7C
:1043900021EE051A06EE421A07EE431A80ED061AC0
:1043A00080ED076A103006E080ED070A80ED040A10
:1043B00080ED050A183080ED000A704710B50446FC
:1043C000B5EE001A0430FEF723FD207010BD00008A
:1043D00010B504461C302021FCF78CFA9FED040A2E
:1043E000F2EE040A2046BDE8104000F0CFB800BF4E
:1043F00000007A4410B504461C302021FCF77AFAFC
:104400009FED040AF2EE040A2046BDE8104000F0D9
:10441000BDB800BF000048430178002944D090EDAA
:10442000072A90ED083A90ED014A90ED025AD0ED3E
:10443000090A90ED036AD0ED0A1A90ED047A32EE83
:10444000021A31EE001A33EE011A90ED0B3A24EE07
:10445000014A90ED0C1A00EEC54A01EEC64A90EDF5
:104460000D6A33EE035AD0ED061A34EE055A31EEDA
:10447000051A90ED055A27EE011A90ED0E7A80ED9F
:10448000070A80ED082A80ED094AC0ED0A0A80ED8E
:104490000B4A80ED0C3A06EE451A07EE611A80EDE4
:1044A0000D1A80ED0E6A11E0B0EE401A80ED070A99
:1044B00080ED080A80ED090A80ED0A0A80ED0B0AFA
:1044C00080ED0C0A80ED0D0A80ED0E0AB0EE410A77
:1044D00070470178002944D090ED072A90ED083A02
:1044E00090ED014A90ED025AD0ED090A90ED036A71
:1044F000D0ED0A1A90ED047A32EE021A31EE001A6B
:1045000033EE011A90ED0B3A24EE014A90ED0C1AAD
:1045100000EEC54A01EEC64A90ED0D6A33EE035A2D
:10452000D0ED061A34EE055A31EE051A90ED055A13
:1045300027EE011A90ED0E7A80ED070A80ED082A29
:1045400080ED094AC0ED0A0A80ED0B4A80ED0C3A75
:1045500006EE451A07EE611A80ED0D1A80ED0E6A1F
:1045600011E0B0EE401A80ED070A80ED080A80EDF8
:10457000090A80ED0A0A80ED0B0A80ED0C0A80ED35
:104580000D0A80ED0E0AB0EE410A704710B52DED10
:10459000048B0446B4EE001A0430B0EE608AB0EE2C
:1045A000409AFEF735FC2146B5EE081AB0EE490AEE
:1045B000F0EE480A01F8100B0846FEF729FC2078B7
:1045C000BDEC048B10BD000010B59FED070A04463A
:1045D00000F010F89FED050ADFED050A2046BDE862
:1045E000104000F0BFB800BF0000000000007A4497
:1045F0000000484280ED0C0A80ED0D0A80ED0E0AA5
:1046000080ED0F0A80ED100A80ED110A80ED120A8C
:1046100080ED130A80ED140A80ED150A80ED160A6C
:1046200080ED170A80ED180A80ED190A80ED1A0A4C
:1046300080ED1B0A704710B5044690F87000002802
:1046400000F0898094ED0C1A94ED0D3A94ED004A37
:1046500094ED015AD4ED0E0A94ED026AD4ED0F1ACE
:1046600094ED037A31EE012A32EE002A33EE022A6B
:1046700094ED103A24EE022A94ED114A00EEC52A78
:1046800001EEC62A94ED126A33EE035AD4ED051AF0
:1046900032EE055A34EE054A94ED045A27EE044AE8
:1046A00094ED137A84ED0C0A84ED0D1A84ED0E2A34
:1046B000C4ED0F0A84ED102A84ED113A06EE454A46
:1046C00007EE614A84ED124A84ED136A94ED160AEE
:1046D00094ED171A84ED170A94ED146A94ED157A87
:1046E00094ED062A94ED073A94ED085A76EE060A00
:1046F00074EE200A37EE207A22EE072A00EE432AD3
:1047000001EE452A84ED162A84ED156A84ED144ADB
:1047100094ED1A1A94ED1B3A84ED1B1A94ED186A65
:1047200094ED197A94ED090A94ED0A4A94ED0B5A26
:1047300076EE060A72EE200A37EE207A20EE070A9D
:1047400001EE440A03EE450A84ED1A0A84ED196A63
:1047500084ED182A10BD2046FFF74CFF94ED1A0A8D
:1047600010BD0000B0B52DED048B9FED151A154D51
:10477000B0EE608AB0EE409A0446A84784F8700014
:10478000B4EE081A04F10C00B0EE490AF0EE480A43
:10479000A847B5EE041A04F11800B0EE490AF0EE8D
:1047A000480AA847B5EE0C1A04F12400B0EE490AF5
:1047B000F0EE480AA84794F87000BDEC048BB0BD39
:1047C0000000803D112E00002DE9F84F2DED1A3B21
:1047D000DF4C4FF48861204616F044F9204616F06D
:1047E00073F92046202116F03DF9DFF86893B9F8F7
:1047F000060098B140F2C931884203D90020A9F8D7
:1048000006000BE0D44906E0421C80B2085CA9F81F
:10481000062020601046A2699206F5D5CF48D04EFA
:10482000DFF84083DFF840A3DFEDD08A9FEDC49B23
:104830009FEDC5AB9FEDCE8A4FF0000BB0EE08FAAE
:10484000057872E12768284600F094FA407820B98C
:10485000D8F80400B04240F06881D9F80C10481C28
:104860000AF80170C9F80C0099F80120032A00F237
:104870005C81DFE802F002112C3EF8B2002900F062
:10488000D680622840F04F810120C9F80CB0A9F809
:10489000010089F803B048E199F8021099F8032063
:1048A0000428394489F80210114489F8031040F0B3
:1048B0003C81BAF80200011D013880B2A9F8081045
:1048C000902800F22E81022089F801002DE199F84C
:1048D000021099F80320394489F80210114489F82C
:1048E0000310B9F80810884204BF032089F80100BA
:1048F0001BE1B9F80800814206D199F80200F9B22B
:10490000884200F012810CE199F80300F9B2884264
:1049100040F00781284600F02DFA0746407800282D
:1049200000F08A809AF80000012840F0FA809AF896
:104930000100072840F0F5809AF81900C00700F040
:10494000ED809AF81800032840F0E8809AF81B00E0
:104950000528C0F0E380B97897F82220DAF82C0017
:10496000002979D040F6AC51884200F2D78001206E
:10497000CDE90120DAF83C00DAF830109AED0D0AA2
:104980009AED0ECA4042049101EE100A41F27D50A8
:1049900081424FF0000038BF01200790A2F10800CB
:1049A000B0FA80F040090390DAF82000B8EEC0BAFF
:1049B000B8EEC1DA1CF0EDF8B8EECCCA049B40F6B4
:1049C000D8626DEE28BA93424FF0000238BF012240
:1049D000DDF80CC0019B42EA0C02082B079B08BFC4
:1049E0000CEA0302039253EC192B049207931CF078
:1049F00073F9CDE90010DAF81C001CF0CAF8049A2B
:104A0000079B1CF069F9024602980B4607920028A2
:104A100046D0D7E9020197ED12DA1F460FF0FCFBF2
:104A20000BEE80DA1DEE100A1CF04CFC41E0B528BC
:104A300018BFC9F80CB078E0D8F80400B04270D1C3
:104A40009AF8000001286CD19AF80100072804BFE9
:104A5000012089F8000064E040F6C31188421AD8AA
:104A6000D9E9040107920CF087FA00284FD0D9E960
:104A700004010FF0D1FBB4EECF0AF1EE10FA4DDDD8
:104A800009F110000CF07CFAB878079A029097F8B8
:104A9000220001906EE709F110000CF071FA3DE080
:104AA000DAF828001F461CF074F853EC1A2B1CF09F
:104AB00013F941EC100B0398079BDDE900212CEE64
:104AC00028CA2BEE28BA8DED040B0028284642ECAC
:104AD0001E1B0CBF0621082147EC1D3B0AF024FDDC
:104AE000B0EE4E0AB0EE4D1A9DED042B2846B0EE06
:104AF0004C3AF0EE4B3AB0EE6B4A0121F0EE484AE8
:104B0000F0EE6E0AF0EE6D1A0AF082FE09E008A8D7
:104B10000FF08CF9DDE90801C9E9040128460AF023
:104B200065FD89F801B0C9F80CB0A069C0067FF531
:104B300089AEBDEC1A3B01B0BDE8F08F00BF00BFED
:104B400048AFBC9AF2D77A3E9A9999999999B93F08
:104B500000C00040000D0020ED5902004244020058
:104B600001C201008C000020BC1A0020CDCCCC3D3D
:104B70009A99193E2DE9FC4164480478204600F0DA
:104B8000F9F8407800B3204600F0F4F8D0E90201CB
:104B90000FF042FBB0EE001AB4EEC10AF1EE10FACB
:104BA000D8BFBDE8FC8120460AF060FD584C04F1F6
:104BB00010000CF0E5F900204FF4E131A0805548D9
:104BC000C0E90011BDE8FC81524D6E68B6F5165F74
:104BD0000BD0B6F5164F08D04F48864229D04F4922
:104BE0008E4211D0B6F5E13FECD1494CA788012F98
:104BF0001BD087BB15F0A6FC01466A6848486023B5
:104C000015F0E3FEA78839E041488288092A39D89F
:104C10000378012B1EBF511C8180BDE8FC8100225E
:104C20008280481C6860BDE8FC810CF011FE012701
:104C300024E0374EB088012842D0002844D115F036
:104C400081FC014636484FF4E132602315F0BDFE89
:104C5000B088471C4DE001EE106A9FED330AB8EEB4
:104C6000411A80EE010A18F01DFF01EE107AB8EE2D
:104C7000411AB4EEC10AF1EE10FA10DD781CA080E2
:104C8000BDE8FC812968B1F5165F35D0B1F5E13F8B
:104C900035D0B1F5164F35D14FF4E13131E01F4831
:104CA000C5E900600025A58015F04CFC01461C48B4
:104CB0004FF4E132602315F088FE2570BDE8FC81D9
:104CC0000CF0C6FD022714E0032801D2032710E0F0
:104CD0009FED140A012720460021062200234FF0F1
:104CE000000800970AF038FC4FF41650A6F804802C
:104CF0006860B780BDE8FC814FF4164101E04FF4D5
:104D00001651696000218180BDE8FC8142440200A7
:104D1000000D00208C00002002C2010001C2010031
:104D200000C00040CDCCCC3D00A00C48044A00EBB4
:104D30004001022802EB011188BF0021084670479C
:104D400040160020044A00EB4001022802EB01114A
:104D500088BF002108467047581B0020044A00EB1A
:104D60004001022802EB011188BF0021084670476C
:104D7000C81C002004495822072810FB021188BFD4
:104D800000210846704700BF482A00200AF01AB8E0
:104D900070B5B84C204615F0DBF8204615F0A2F8A7
:104DA00018B1B5480021417170BDB34D6879032831
:104DB00047D002284BD0012818BF70BDAE792046DD
:104DC000002E52D00C2E47D915F088F8A9790D2E57
:104DD000294481F83F0000F00481B5F84200002624
:104DE00000BAA6EB2041B5F8400000BAA6EB20427D
:104DF000B5F8440000BAA6EB2043002000F03CFBCD
:104E0000B5F84A0000BAA6EB2041B5F8480000BA50
:104E1000A6EB2042B5F84C0000BAA6EB20430020D8
:104E200000F09EFBE879002800F0BB80022077218B
:104E30000022A5F80500204615F094F82046002130
:104E4000BBE0A87998B104281BD8204604E0AE79CD
:104E500020467EB1042E25D815F040F8A9792944C2
:104E600081F83F0020460921BDE0692103E020468A
:104E70000E2100E07721012215F074F820460B2165
:104E8000B1E0072800F0A980062800F0B2800528CC
:104E900040F0CF80204615F021F8A979294481F807
:104EA0003F009EE015F01AF8A979052E294481F8F3
:104EB0003F0000F09680286C20F07F41000E09BA78
:104EC0000A0A0029B8BF02F17F42B5F84410B5F9CB
:104ED0001830B5F9206000EE102A95ED0B3A95EDEB
:104EE000091A95ED0A2A95ED0C4AB8EEC00A40EA77
:104EF000012005EE106A06EE103A23EE003A00BAE1
:104F0000010A0028B8BF01F17F41B5F91400B5F9D5
:104F10001C20B8EEC55AB8EEC66AB5F9103000EEDE
:104F2000101AB8EEC22A03EE056AF8EEC00AB8EE0F
:104F3000C10A05EE102A03EE062A07EE100A01EE5A
:104F4000103A24EE204AB8EEC55AB8EEC76A03EE0E
:104F5000020AB8EEC11A24EE032A03EE056A04EE33
:104F6000010A02EE060AB5EEC00AF1EE10FA16DDED
:104F70009FED421ADFED420A80EE010A19F0FCFCB7
:104F80004048B7EE001A9FED402AFFEE001A0121BB
:104F900031EE400A007820EE021A0AF093FB00205E
:104FA000E871287A88B103200E210022A5F80500B7
:104FB000204614F0D7FF2046032114F091FF20462D
:104FC0000321BDE8704014F087BF687A01284AD1F8
:104FD0000120A5F80500002033E02046012114F04F
:104FE0007FFF2046052114F077FFA8790130A871D2
:104FF00070BD204614F072FFA97905F140021144FA
:1050000001F8010CB5F94430B5F94000B5F942108A
:1050100042425B42022000F01DFB20460E2100228E
:1050200014F0A0FF20460A2114F05AFF2046032165
:10503000D9E700202872697A012915D10121A5F844
:105040000510687220466921002214F08BFF20466B
:105050003B2114F045FF2046032114F03DFF6889F1
:10506000A5F8070002E00020A5F805000748202168
:10507000016070BD00000240400A002080E6C54784
:1050800031D3423EF84402006031874A08E200E032
:105090002DE9F041D24C204614F024FF054620466D
:1050A00014F056FFDFF874637078032800F2B381C0
:1050B000DFE800F002192E415DBBB078012800F056
:1050C000B280002818BFBDE8F0810120D449012238
:1050D000B07096F90300C0EBC00011F82010204614
:1050E00014F040FF85E0A5B996F90300CC4DC0EB64
:1050F000C00005EB80014A7A531EB278934254DD1A
:105100008818817A204614F0EBFE2046012155E0F4
:10511000DDB1F0780130F07040B2032807DCC049FF
:10512000C0EBC00011F82000002840F0748100207E
:10513000F070BDE8F0812DB3BB48007800F078FA3C
:10514000B848FF210170BDE8F081B078D8B396F976
:105150000310B34DC1EBC10205EB8202527A531E1C
:10516000834273DD204614F0B9FE96F90310C0B2F5
:10517000C1EBC10105EB8102B1780A44527A824247
:105180000BD073E0B078D0B3042871D8204614F067
:10519000A5FEB178721882F83300481C0921B0705E
:1051A0002046BDE8F04114F097BE40F078808818A2
:1051B000817A204614F094FE2046052114F08CFEDE
:1051C000B078013026E10120954D0122B07096F9AA
:1051D0000300C0EBC00015F82010204614F0C2FEFA
:1051E00096F90300C0EBC00005EB8000407A02286E
:1051F00013D220460721BDE8F04114F06DBE012016
:1052000087490122B070874890F90000C0EBC000C8
:1052100011F82010204614F0A5FE20460B21BDE811
:10522000F04114F059BE204614F058FEF1787C4D40
:105230004AB2C2EBC20205EB8203DB79984247D146
:1052400015F822100120A6F801002DE04BD12046D0
:1052500014F044FE96F90310C0B2C1EBC10105EB96
:105260008102B1780A44527A824210D064200FE061
:105270000538032800F2CF80DFE800F0025377CB37
:10528000204614F02BFEB178721882F83300481CC7
:10529000B07020460521BDE8F04114F01DBE02218A
:1052A000A6F8011015F820102046002214F05AFE2E
:1052B00096F90300C0EBC00005EB8000017A2046A0
:1052C00014F00EFE20460321BDE8F04114F004BEA8
:1052D000481CF07040B203283FF729AFC0EBC00074
:1052E00015F8200020E7904218D1204614F0F6FD72
:1052F000F178B378C0B24AB2C2EBC20205EB8202C7
:1053000013445B7A83423FD1464892ED050A01700F
:1053100045480078BDE8F04100F064B9C8B20130FA
:1053200033E0204614F0DAFDB178DFF8F480314440
:1053300081F833003B4890F90000C0EBC00708EB50
:105340008705A87840B1B08E40BAB086F08E40BADA
:10535000F086308F40BA308795F91900012820DB9C
:1053600006EB4000B0F9321021E008202C49B07063
:105370002C4890F90000C0EBC00001EB800041799F
:10538000204614F0ADFD84E7481CF07040B20328BD
:1053900004DCC0EBC00015F82000D0BB0020F0708A
:1053A00037E0C04306EB4000B0F93400414295F9C4
:1053B0001A00012804DB06EB4000B0F9322005E0BA
:1053C000C04306EB4000B0F93400424295F91B009F
:1053D000012807DB06EB4000B0F9323008E000BFDF
:1053E00000100240C04306EB4000B0F934004342D5
:1053F0000D48007800F02EF9E87850B1B07818F830
:10540000271000220130B070204614F0ABFD29793E
:1054100055E70020B070BDE8F08100BF400A0020D1
:10542000E4220200CC0000205423020070B52DEDD0
:10543000047B022806D8054600EB4000344E0101EB
:10544000715C09B1002412E006EB00100124B0EEFB
:10545000408A047068460EF0E9FC05EB4500DDE982
:10546000001206EB0010C0E9021280ED058A20460A
:10547000BDEC047B70BD00BF2DE9F0412DED068B26
:1054800002283FD8044600EB40000F4601012048A7
:10549000415CB9B304EB44019846164600EB011594
:1054A00005F108000EF0F4FE2046C5E90676C5F8C1
:1054B000208085ED040AFDF729FD02EE107A03EE47
:1054C000106A04EE108A2046B8EEC22AB8EEC33A3B
:1054D000B8EEC44A32EE408A33EE609A34EE41AA06
:1054E000FDF728FDD5ED051A28EE000A69EE200A21
:1054F0002AEE011A13F02AFB05F1240080EC030ABE
:10550000012000E00020BDEC068BBDE8F08100BF6B
:105510004016002070B52DED047B022806D8054604
:1055200000EB40002E4E0101715C09B1002412E035
:1055300006EB00100124B0EE408A047068460EF0BD
:1055400075FC05EB4500DDE9001206EB0010C0E933
:10555000021280ED058A2046BDEC047B70BD00BFC1
:105560002DE9F041022837D8074600EB40000E46EF
:1055700001011B48415C79B307EB4701984615468A
:1055800000EB011404F108000EF082FE3846C4E975
:105590000665C4F8208084ED040AFDF7FFFC02EEE6
:1055A000106A03EE105A04EE108AB8EEC22AB8EE62
:1055B000C33AB8EEC44AD4ED051A32EE400A73EE8F
:1055C000600A34EE411A13F0C1FA04F1240080ECB1
:1055D000030A0120BDE8F0810020BDE8F08100BF92
:1055E000581B002070B52DED047B022806D8054617
:1055F00000EB40003B4E0101715C09B1002412E058
:1056000006EB00100124B0EE408A047068460EF0EC
:105610000DFC05EB4500DDE9001206EB0010C0E9CA
:10562000021280ED058A2046BDEC047B70BD00BFF0
:10563000022884BF0020704700EB4001294A08017E
:10564000135C0020002B08BF704702EB01110870AB
:10565000012070472DE9F0412DED068B0446002016
:10566000022C3BD816460F4604EB44011D4A9846CF
:105670000B01D35C93B302EB011505F108000EF0AA
:1056800007FE2046C5E90676C5F8208085ED040AA8
:10569000FDF79EFC02EE107A03EE106A04EE108A0B
:1056A0002046B8EEC22AB8EEC33AB8EEC44A32EE8B
:1056B000408A33EE609A34EE41AAFDF79FFCD5EDA7
:1056C000051A28EE000A69EE200A2AEE011A13F0E4
:1056D0003DFA05F1240080EC030A0120BDEC068BA5
:1056E000BDE8F081C81C002000284FF040204FF09A
:1056F00008010CBF0822002214F0D6B900284FF090
:1057000040204FF010010CBF1022002214F0CCB941
:105710009FED0F1AB4EEC10AF1EE10FA08DCB5EEF7
:10572000C00AB0EE401AF1EE10FAB8BF9FED091AA8
:105730009FED090A9FED092A094840F2071101EE81
:10574000002ABCEEC20A10EE102A14F05ABD00BFA7
:105750000000C84200000000C3F547C200409C455D
:105760000090024010B52DED028BC94C60780628E0
:1057700000F2EF80DFE810F00B0107001A0039009B
:105780004E005A0075009FEDC61A94ED030AB4EE60
:10579000C10AF1EE10FA80F28B809FEDC70AFFF785
:1057A000B7FF0020FFF7AAFF01202FE09FEDBC1AF2
:1057B00094ED030AB4EEC10AF1EE10FA0FDB9FED8F
:1057C000BB1AB4EEC10AF1EE10FAC0F2A0809FED50
:1057D000B81AB4EEC10AF1EE10FA80F291809FED92
:1057E000B60AFFF795FF01200DE09FEDAD1A94ED8D
:1057F000030AB4EEC10AF1EE10FA70DA9FEDAF0AB7
:10580000FFF786FF0020FFF779FF0020FFF76CFF0E
:10581000012087E09FED9F1A94ED030AB4EEC10AC0
:10582000F1EE10FA42DB9FED9C1A9FE09FED991A72
:1058300094ED030AB4EEC10AF1EE10FA36DB9FEDE7
:10584000961AB4EEC10AF1EE10FAC0F295809FEDFF
:10585000931AB4EEC10AF1EE10FA27DB9FED901A0D
:1058600084E09FED8C1A94ED030AB4EEC10AF1EEC8
:1058700010FA1BDB9FED881AB4EEC10AF1EE10FAA4
:105880007ADB9FED861AB4EEC10AF1EE10FA0DDB59
:105890009FED831AB4EEC10AF1EE10FA6CDBB5EE9F
:1058A000001AB4EEC10AF1EE10FA5DDA012064E0EC
:1058B0009FED7E1AB4EEC10AF1EE10FA27DB9FEDE0
:1058C0007C1AB4EEC10AF1EE10FA2EDA9FED7A0AD4
:1058D000FFF71EFF0020FFF711FF012034E09FEDCE
:1058E000731AB4EEC10AF1EE10FA25DB9FED701ABF
:1058F000B4EEC10AF1EE10FA02DA9FED700A1DE073
:105900009FED6C1AB4EEC10AF1EE10FA1FDA9FEDAA
:105910006A0AFFF7FDFE0020FFF7F0FE0020FFF708
:10592000E3FE0020FDF7E6FA13E09FED621AB4EE05
:10593000C10AF1EE10FA0ADA9FED5F0AFFF7E8FEFE
:105940000020FFF7DBFE0020FFF7CEFE01E0002085
:1059500060709FED550A94ED031A31EE000A84ED54
:10596000030ABDEC028B10BD9FED4E1AB4EEC10AC6
:10597000F1EE10FA80F278800020FDF7BBFA9FED7F
:105980004A0A94ED031A31EE000A84ED030A2078E6
:105990000528E6D8DFE800F00325306D5F539FED62
:1059A000420A94ED011A31EE000AB7EE081AB4EE7D
:1059B000C10AF1EE10FA5ADAB6EE001A84ED010AC5
:1059C000B4EEC10AF1EE10FA53DBB7EE001AB4EEF2
:1059D000C10AF1EE10FA3EDA9FED370AFFF798FEA2
:1059E0002BE09FED310A94ED011A31EE008AB6EEFC
:1059F000000AB4EEC08A09E09FED2B0A94ED011A6B
:105A00009FED282A31EE008AB4EEC28AF1EE10FA38
:105A10001FDA9FED210A84ED018AB4EEC08AF1EE0F
:105A200010FA18DB9FED240AFFF772FE9FED1C0AA7
:105A3000B4EEC08AF1EE10FA1FDA012010E09FEDFB
:105A4000161A94ED020AB4EEC10AF1EE10FA02DB66
:105A500011E0002060609FED190AFFF759FE002059
:105A6000FFF74CFE00200CE00020607087E700206C
:105A700060609FED110AFFF74BFE0020FFF73EFE2E
:105A80000120BDEC028BBDE81040FFF72DBE00BF2A
:105A9000300A0020CDCC4C3DCDCCCC3D9A99193E5E
:105AA000CDCC4C3E9A99993E0AD7A33CCDCCCC3E66
:105AB0009A99193FCDCC4C3F000000000000C8422D
:105AC0000B48002180ED020A4160052101707047FA
:105AD00007494A7882421CBF0022CA60487070475A
